{
  "abi": [
    {
      "inputs": [
        {
          "internalType": "contract ISimpleToken",
          "name": "_token",
          "type": "address"
        },
        {
          "internalType": "uint256",
          "name": "_dropPerAddress",
          "type": "uint256"
        },
        {
          "internalType": "bytes32",
          "name": "_merkleRoot",
          "type": "bytes32"
        },
        {
          "internalType": "uint256",
          "name": "_proofLength",
          "type": "uint256"
        }
      ],
      "stateMutability": "nonpayable",
      "type": "constructor"
    },
    {
      "inputs": [
        {
          "internalType": "address",
          "name": "",
          "type": "address"
        }
      ],
      "name": "dropped",
      "outputs": [
        {
          "internalType": "bool",
          "name": "",
          "type": "bool"
        }
      ],
      "stateMutability": "view",
      "type": "function"
    },
    {
      "inputs": [],
      "name": "latestAcceptedProof",
      "outputs": [
        {
          "internalType": "bytes32[]",
          "name": "",
          "type": "bytes32[]"
        }
      ],
      "stateMutability": "view",
      "type": "function"
    },
    {
      "inputs": [
        {
          "internalType": "bytes32[]",
          "name": "merkleProof",
          "type": "bytes32[]"
        }
      ],
      "name": "mintToken",
      "outputs": [],
      "stateMutability": "nonpayable",
      "type": "function"
    },
    {
      "inputs": [],
      "name": "token",
      "outputs": [
        {
          "internalType": "contract ISimpleToken",
          "name": "",
          "type": "address"
        }
      ],
      "stateMutability": "view",
      "type": "function"
    }
  ],
  "bytecode": "61010060405234801561001157600080fd5b506040516108d43803806108d4833981016040819052610030916101a8565b6001600160a01b03841661008b5760405162461bcd60e51b815260206004820152601c60248201527f546f6b656e20616464726573732063616e6e6f74206265207a65726f0000000060448201526064015b60405180910390fd5b60008290036100dc5760405162461bcd60e51b815260206004820152601a60248201527f4d65726b6c6520726f6f742063616e6e6f74206265207a65726f0000000000006044820152606401610082565b600281116101365760405162461bcd60e51b815260206004820152602160248201527f4d65726b6c652070726f6f662063616e6e6f7420626520746869732073686f726044820152601d60fa1b6064820152608401610082565b600083116101865760405162461bcd60e51b815260206004820152601a60248201527f41697264726f702073686f756c6420626520706f7369746976650000000000006044820152606401610082565b6001600160a01b0390931660805260c09290925260a09190915260e0526101f3565b600080600080608085870312156101be57600080fd5b84516001600160a01b03811681146101d557600080fd5b60208601516040870151606090970151919890975090945092505050565b60805160a05160c05160e0516106a26102326000396000610345015260006101a7015260006102a901526000818160bc015261036b01526106a26000f3fe608060405234801561001057600080fd5b506004361061004c5760003560e01c80637b6aa36b146100515780638837c7961461006f578063cb5a2c65146100a2578063fc0c546a146100b7575b600080fd5b6100596100f6565b60405161006691906104e7565b60405180910390f35b61009261007d36600461052b565b60006020819052908152604090205460ff1681565b6040519015158152602001610066565b6100b56100b0366004610571565b61014e565b005b6100de7f000000000000000000000000000000000000000000000000000000000000000081565b6040516001600160a01b039091168152602001610066565b6060600180548060200260200160405190810160405280929190818152602001828054801561014457602002820191906000526020600020905b815481526020019060010190808311610130575b5050505050905090565b3360009081526020819052604090205460ff16156101a55760405162461bcd60e51b815260206004820152600f60248201526e105b1c9958591e48191c9bdc1c1959608a1b60448201526064015b60405180910390fd5b7f000000000000000000000000000000000000000000000000000000000000000081511461020c5760405162461bcd60e51b81526020600482015260146024820152730a8e4caca40d8cadccee8d040dad2e6dac2e8c6d60631b604482015260640161019c565b336001600160a01b0316816000815181106102295761022961062f565b602002602001015160001c6001600160a01b0316146102a75760405162461bcd60e51b815260206004820152603460248201527f4669727374204d65726b6c65206c6561662073686f756c6420626520746865206044820152736d73672e73656e6465722773206164647265737360601b606482015260840161019c565b7f00000000000000000000000000000000000000000000000000000000000000006102d1826103e6565b146103145760405162461bcd60e51b815260206004820152601360248201527213595c9adb19481c1c9bdbd98819985a5b1959606a1b604482015260640161019c565b3360008181526020819052604090819020805460ff19166001179055516340c10f1960e01b815260048101919091527f000000000000000000000000000000000000000000000000000000000000000060248201527f00000000000000000000000000000000000000000000000000000000000000006001600160a01b0316906340c10f1990604401600060405180830381600087803b1580156103b757600080fd5b505af11580156103cb573d6000803e3d6000fd5b505082516103e29250600191506020840190610487565b5050565b6000610449826000815181106103fe576103fe61062f565b6020026020010151836001815181106104195761041961062f565b60200260200101516040805191909218602080830191909152825180830382018152918301909252805191012090565b905060025b82518110156104815761046d828483815181106104195761041961062f565b91508061047981610645565b91505061044e565b50919050565b8280548282559060005260206000209081019282156104c2579160200282015b828111156104c25782518255916020019190600101906104a7565b506104ce9291506104d2565b5090565b5b808211156104ce57600081556001016104d3565b6020808252825182820181905260009190848201906040850190845b8181101561051f57835183529284019291840191600101610503565b50909695505050505050565b60006020828403121561053d57600080fd5b81356001600160a01b038116811461055457600080fd5b9392505050565b634e487b7160e01b600052604160045260246000fd5b6000602080838503121561058457600080fd5b823567ffffffffffffffff8082111561059c57600080fd5b818501915085601f8301126105b057600080fd5b8135818111156105c2576105c261055b565b8060051b604051601f19603f830116810181811085821117156105e7576105e761055b565b60405291825284820192508381018501918883111561060557600080fd5b938501935b828510156106235784358452938501939285019261060a565b98975050505050505050565b634e487b7160e01b600052603260045260246000fd5b60006001820161066557634e487b7160e01b600052601160045260246000fd5b506001019056fea26469706673582212201844c12223e81846d73a4a3452f39b1645e6874da42d60ace9c27d171399a54d64736f6c63430008110033",
  "bytecodeSha1": "3238e630129cf5da0b938a22738a4730bc8ff82d",
  "compiler": {
    "evm_version": "istanbul",
    "optimizer": {
      "enabled": true,
      "runs": 200
    },
    "version": "0.8.17+commit.8df45f5f"
  },
  "contractName": "Airdrop",
  "language": "Solidity",
  "natspec": {
    "kind": "dev",
    "methods": {},
    "version": 1
  },
  "opcodes": "PUSH1 0x80 PUSH1 0x40 MSTORE CALLVALUE DUP1 ISZERO PUSH2 0x10 JUMPI PUSH1 0x0 DUP1 REVERT JUMPDEST POP PUSH1 0x4 CALLDATASIZE LT PUSH2 0x4C JUMPI PUSH1 0x0 CALLDATALOAD PUSH1 0xE0 SHR DUP1 PUSH4 0x7B6AA36B EQ PUSH2 0x51 JUMPI DUP1 PUSH4 0x8837C796 EQ PUSH2 0x6F JUMPI DUP1 PUSH4 0xCB5A2C65 EQ PUSH2 0xA2 JUMPI DUP1 PUSH4 0xFC0C546A EQ PUSH2 0xB7 JUMPI JUMPDEST PUSH1 0x0 DUP1 REVERT JUMPDEST PUSH2 0x59 PUSH2 0xF6 JUMP JUMPDEST PUSH1 0x40 MLOAD PUSH2 0x66 SWAP2 SWAP1 PUSH2 0x4E7 JUMP JUMPDEST PUSH1 0x40 MLOAD DUP1 SWAP2 SUB SWAP1 RETURN JUMPDEST PUSH2 0x92 PUSH2 0x7D CALLDATASIZE PUSH1 0x4 PUSH2 0x52B JUMP JUMPDEST PUSH1 0x0 PUSH1 0x20 DUP2 SWAP1 MSTORE SWAP1 DUP2 MSTORE PUSH1 0x40 SWAP1 KECCAK256 SLOAD PUSH1 0xFF AND DUP2 JUMP JUMPDEST PUSH1 0x40 MLOAD SWAP1 ISZERO ISZERO DUP2 MSTORE PUSH1 0x20 ADD PUSH2 0x66 JUMP JUMPDEST PUSH2 0xB5 PUSH2 0xB0 CALLDATASIZE PUSH1 0x4 PUSH2 0x571 JUMP JUMPDEST PUSH2 0x14E JUMP JUMPDEST STOP JUMPDEST PUSH2 0xDE PUSH32 0x0 DUP2 JUMP JUMPDEST PUSH1 0x40 MLOAD PUSH1 0x1 PUSH1 0x1 PUSH1 0xA0 SHL SUB SWAP1 SWAP2 AND DUP2 MSTORE PUSH1 0x20 ADD PUSH2 0x66 JUMP JUMPDEST PUSH1 0x60 PUSH1 0x1 DUP1 SLOAD DUP1 PUSH1 0x20 MUL PUSH1 0x20 ADD PUSH1 0x40 MLOAD SWAP1 DUP2 ADD PUSH1 0x40 MSTORE DUP1 SWAP3 SWAP2 SWAP1 DUP2 DUP2 MSTORE PUSH1 0x20 ADD DUP3 DUP1 SLOAD DUP1 ISZERO PUSH2 0x144 JUMPI PUSH1 0x20 MUL DUP3 ADD SWAP2 SWAP1 PUSH1 0x0 MSTORE PUSH1 0x20 PUSH1 0x0 KECCAK256 SWAP1 JUMPDEST DUP2 SLOAD DUP2 MSTORE PUSH1 0x20 ADD SWAP1 PUSH1 0x1 ADD SWAP1 DUP1 DUP4 GT PUSH2 0x130 JUMPI JUMPDEST POP POP POP POP POP SWAP1 POP SWAP1 JUMP JUMPDEST CALLER PUSH1 0x0 SWAP1 DUP2 MSTORE PUSH1 0x20 DUP2 SWAP1 MSTORE PUSH1 0x40 SWAP1 KECCAK256 SLOAD PUSH1 0xFF AND ISZERO PUSH2 0x1A5 JUMPI PUSH1 0x40 MLOAD PUSH3 0x461BCD PUSH1 0xE5 SHL DUP2 MSTORE PUSH1 0x20 PUSH1 0x4 DUP3 ADD MSTORE PUSH1 0xF PUSH1 0x24 DUP3 ADD MSTORE PUSH15 0x105B1C9958591E48191C9BDC1C1959 PUSH1 0x8A SHL PUSH1 0x44 DUP3 ADD MSTORE PUSH1 0x64 ADD JUMPDEST PUSH1 0x40 MLOAD DUP1 SWAP2 SUB SWAP1 REVERT JUMPDEST PUSH32 0x0 DUP2 MLOAD EQ PUSH2 0x20C JUMPI PUSH1 0x40 MLOAD PUSH3 0x461BCD PUSH1 0xE5 SHL DUP2 MSTORE PUSH1 0x20 PUSH1 0x4 DUP3 ADD MSTORE PUSH1 0x14 PUSH1 0x24 DUP3 ADD MSTORE PUSH20 0xA8E4CACA40D8CADCCEE8D040DAD2E6DAC2E8C6D PUSH1 0x63 SHL PUSH1 0x44 DUP3 ADD MSTORE PUSH1 0x64 ADD PUSH2 0x19C JUMP JUMPDEST CALLER PUSH1 0x1 PUSH1 0x1 PUSH1 0xA0 SHL SUB AND DUP2 PUSH1 0x0 DUP2 MLOAD DUP2 LT PUSH2 0x229 JUMPI PUSH2 0x229 PUSH2 0x62F JUMP JUMPDEST PUSH1 0x20 MUL PUSH1 0x20 ADD ADD MLOAD PUSH1 0x0 SHR PUSH1 0x1 PUSH1 0x1 PUSH1 0xA0 SHL SUB AND EQ PUSH2 0x2A7 JUMPI PUSH1 0x40 MLOAD PUSH3 0x461BCD PUSH1 0xE5 SHL DUP2 MSTORE PUSH1 0x20 PUSH1 0x4 DUP3 ADD MSTORE PUSH1 0x34 PUSH1 0x24 DUP3 ADD MSTORE PUSH32 0x4669727374204D65726B6C65206C6561662073686F756C642062652074686520 PUSH1 0x44 DUP3 ADD MSTORE PUSH20 0x6D73672E73656E64657227732061646472657373 PUSH1 0x60 SHL PUSH1 0x64 DUP3 ADD MSTORE PUSH1 0x84 ADD PUSH2 0x19C JUMP JUMPDEST PUSH32 0x0 PUSH2 0x2D1 DUP3 PUSH2 0x3E6 JUMP JUMPDEST EQ PUSH2 0x314 JUMPI PUSH1 0x40 MLOAD PUSH3 0x461BCD PUSH1 0xE5 SHL DUP2 MSTORE PUSH1 0x20 PUSH1 0x4 DUP3 ADD MSTORE PUSH1 0x13 PUSH1 0x24 DUP3 ADD MSTORE PUSH19 0x13595C9ADB19481C1C9BDBD98819985A5B1959 PUSH1 0x6A SHL PUSH1 0x44 DUP3 ADD MSTORE PUSH1 0x64 ADD PUSH2 0x19C JUMP JUMPDEST CALLER PUSH1 0x0 DUP2 DUP2 MSTORE PUSH1 0x20 DUP2 SWAP1 MSTORE PUSH1 0x40 SWAP1 DUP2 SWAP1 KECCAK256 DUP1 SLOAD PUSH1 0xFF NOT AND PUSH1 0x1 OR SWAP1 SSTORE MLOAD PUSH4 0x40C10F19 PUSH1 0xE0 SHL DUP2 MSTORE PUSH1 0x4 DUP2 ADD SWAP2 SWAP1 SWAP2 MSTORE PUSH32 0x0 PUSH1 0x24 DUP3 ADD MSTORE PUSH32 0x0 PUSH1 0x1 PUSH1 0x1 PUSH1 0xA0 SHL SUB AND SWAP1 PUSH4 0x40C10F19 SWAP1 PUSH1 0x44 ADD PUSH1 0x0 PUSH1 0x40 MLOAD DUP1 DUP4 SUB DUP2 PUSH1 0x0 DUP8 DUP1 EXTCODESIZE ISZERO DUP1 ISZERO PUSH2 0x3B7 JUMPI PUSH1 0x0 DUP1 REVERT JUMPDEST POP GAS CALL ISZERO DUP1 ISZERO PUSH2 0x3CB JUMPI RETURNDATASIZE PUSH1 0x0 DUP1 RETURNDATACOPY RETURNDATASIZE PUSH1 0x0 REVERT JUMPDEST POP POP DUP3 MLOAD PUSH2 0x3E2 SWAP3 POP PUSH1 0x1 SWAP2 POP PUSH1 0x20 DUP5 ADD SWAP1 PUSH2 0x487 JUMP JUMPDEST POP POP JUMP JUMPDEST PUSH1 0x0 PUSH2 0x449 DUP3 PUSH1 0x0 DUP2 MLOAD DUP2 LT PUSH2 0x3FE JUMPI PUSH2 0x3FE PUSH2 0x62F JUMP JUMPDEST PUSH1 0x20 MUL PUSH1 0x20 ADD ADD MLOAD DUP4 PUSH1 0x1 DUP2 MLOAD DUP2 LT PUSH2 0x419 JUMPI PUSH2 0x419 PUSH2 0x62F JUMP JUMPDEST PUSH1 0x20 MUL PUSH1 0x20 ADD ADD MLOAD PUSH1 0x40 DUP1 MLOAD SWAP2 SWAP1 SWAP3 XOR PUSH1 0x20 DUP1 DUP4 ADD SWAP2 SWAP1 SWAP2 MSTORE DUP3 MLOAD DUP1 DUP4 SUB DUP3 ADD DUP2 MSTORE SWAP2 DUP4 ADD SWAP1 SWAP3 MSTORE DUP1 MLOAD SWAP2 ADD KECCAK256 SWAP1 JUMP JUMPDEST SWAP1 POP PUSH1 0x2 JUMPDEST DUP3 MLOAD DUP2 LT ISZERO PUSH2 0x481 JUMPI PUSH2 0x46D DUP3 DUP5 DUP4 DUP2 MLOAD DUP2 LT PUSH2 0x419 JUMPI PUSH2 0x419 PUSH2 0x62F JUMP JUMPDEST SWAP2 POP DUP1 PUSH2 0x479 DUP2 PUSH2 0x645 JUMP JUMPDEST SWAP2 POP POP PUSH2 0x44E JUMP JUMPDEST POP SWAP2 SWAP1 POP JUMP JUMPDEST DUP3 DUP1 SLOAD DUP3 DUP3 SSTORE SWAP1 PUSH1 0x0 MSTORE PUSH1 0x20 PUSH1 0x0 KECCAK256 SWAP1 DUP2 ADD SWAP3 DUP3 ISZERO PUSH2 0x4C2 JUMPI SWAP2 PUSH1 0x20 MUL DUP3 ADD JUMPDEST DUP3 DUP2 GT ISZERO PUSH2 0x4C2 JUMPI DUP3 MLOAD DUP3 SSTORE SWAP2 PUSH1 0x20 ADD SWAP2 SWAP1 PUSH1 0x1 ADD SWAP1 PUSH2 0x4A7 JUMP JUMPDEST POP PUSH2 0x4CE SWAP3 SWAP2 POP PUSH2 0x4D2 JUMP JUMPDEST POP SWAP1 JUMP JUMPDEST JUMPDEST DUP1 DUP3 GT ISZERO PUSH2 0x4CE JUMPI PUSH1 0x0 DUP2 SSTORE PUSH1 0x1 ADD PUSH2 0x4D3 JUMP JUMPDEST PUSH1 0x20 DUP1 DUP3 MSTORE DUP3 MLOAD DUP3 DUP3 ADD DUP2 SWAP1 MSTORE PUSH1 0x0 SWAP2 SWAP1 DUP5 DUP3 ADD SWAP1 PUSH1 0x40 DUP6 ADD SWAP1 DUP5 JUMPDEST DUP2 DUP2 LT ISZERO PUSH2 0x51F JUMPI DUP4 MLOAD DUP4 MSTORE SWAP3 DUP5 ADD SWAP3 SWAP2 DUP5 ADD SWAP2 PUSH1 0x1 ADD PUSH2 0x503 JUMP JUMPDEST POP SWAP1 SWAP7 SWAP6 POP POP POP POP POP POP JUMP JUMPDEST PUSH1 0x0 PUSH1 0x20 DUP3 DUP5 SUB SLT ISZERO PUSH2 0x53D JUMPI PUSH1 0x0 DUP1 REVERT JUMPDEST DUP2 CALLDATALOAD PUSH1 0x1 PUSH1 0x1 PUSH1 0xA0 SHL SUB DUP2 AND DUP2 EQ PUSH2 0x554 JUMPI PUSH1 0x0 DUP1 REVERT JUMPDEST SWAP4 SWAP3 POP POP POP JUMP JUMPDEST PUSH4 0x4E487B71 PUSH1 0xE0 SHL PUSH1 0x0 MSTORE PUSH1 0x41 PUSH1 0x4 MSTORE PUSH1 0x24 PUSH1 0x0 REVERT JUMPDEST PUSH1 0x0 PUSH1 0x20 DUP1 DUP4 DUP6 SUB SLT ISZERO PUSH2 0x584 JUMPI PUSH1 0x0 DUP1 REVERT JUMPDEST DUP3 CALLDATALOAD PUSH8 0xFFFFFFFFFFFFFFFF DUP1 DUP3 GT ISZERO PUSH2 0x59C JUMPI PUSH1 0x0 DUP1 REVERT JUMPDEST DUP2 DUP6 ADD SWAP2 POP DUP6 PUSH1 0x1F DUP4 ADD SLT PUSH2 0x5B0 JUMPI PUSH1 0x0 DUP1 REVERT JUMPDEST DUP2 CALLDATALOAD DUP2 DUP2 GT ISZERO PUSH2 0x5C2 JUMPI PUSH2 0x5C2 PUSH2 0x55B JUMP JUMPDEST DUP1 PUSH1 0x5 SHL PUSH1 0x40 MLOAD PUSH1 0x1F NOT PUSH1 0x3F DUP4 ADD AND DUP2 ADD DUP2 DUP2 LT DUP6 DUP3 GT OR ISZERO PUSH2 0x5E7 JUMPI PUSH2 0x5E7 PUSH2 0x55B JUMP JUMPDEST PUSH1 0x40 MSTORE SWAP2 DUP3 MSTORE DUP5 DUP3 ADD SWAP3 POP DUP4 DUP2 ADD DUP6 ADD SWAP2 DUP9 DUP4 GT ISZERO PUSH2 0x605 JUMPI PUSH1 0x0 DUP1 REVERT JUMPDEST SWAP4 DUP6 ADD SWAP4 JUMPDEST DUP3 DUP6 LT ISZERO PUSH2 0x623 JUMPI DUP5 CALLDATALOAD DUP5 MSTORE SWAP4 DUP6 ADD SWAP4 SWAP3 DUP6 ADD SWAP3 PUSH2 0x60A JUMP JUMPDEST SWAP9 SWAP8 POP POP POP POP POP POP POP POP JUMP JUMPDEST PUSH4 0x4E487B71 PUSH1 0xE0 SHL PUSH1 0x0 MSTORE PUSH1 0x32 PUSH1 0x4 MSTORE PUSH1 0x24 PUSH1 0x0 REVERT JUMPDEST PUSH1 0x0 PUSH1 0x1 DUP3 ADD PUSH2 0x665 JUMPI PUSH4 0x4E487B71 PUSH1 0xE0 SHL PUSH1 0x0 MSTORE PUSH1 0x11 PUSH1 0x4 MSTORE PUSH1 0x24 PUSH1 0x0 REVERT JUMPDEST POP PUSH1 0x1 ADD SWAP1 JUMP INVALID LOG2 PUSH5 0x6970667358 0x22 SLT KECCAK256 XOR DIFFICULTY 0xC1 0x22 0x23 0xE8 XOR CHAINID 0xD7 GASPRICE 0x4A CALLVALUE MSTORE RETURN SWAP12 AND GASLIMIT 0xE6 DUP8 0x4D LOG4 0x2D PUSH1 0xAC 0xE9 0xC2 PUSH30 0x171399A54D64736F6C634300081100330000000000000000000000000000 ",
  "sha1": "70ba69e735954546314ed0e4c020746ed37993b1",
  "source": "// SPDX-License-Identifier: MIT\npragma solidity ^0.8.0;\n\nimport \"@openzeppelin/contracts/token/ERC20/ERC20.sol\";\ninterface ISimpleToken {\n    function mint(address addr, uint256 amount) external;\n}\n\ncontract Airdrop {\n\n    ISimpleToken public immutable token;\n    mapping(address => bool) public dropped;\n\n    // merkle tree\n    bytes32 immutable merkleRoot;\n    uint256 immutable proofLength;\n    uint256 immutable dropPerAddress;\n\n    bytes32[] _latestAcceptedProof;\n\n    constructor(\n        ISimpleToken _token,\n        uint256 _dropPerAddress,\n        bytes32 _merkleRoot,\n        uint256 _proofLength\n    ) {\n        require(address(_token) != address(0), \"Token address cannot be zero\");\n        require(uint256(_merkleRoot) != 0, \"Merkle root cannot be zero\");\n        require(_proofLength > 2, \"Merkle proof cannot be this short\");\n        require(_dropPerAddress > 0, \"Airdrop should be positive\");\n\n        token = _token;\n        proofLength = _proofLength;\n        merkleRoot = _merkleRoot;\n        dropPerAddress = _dropPerAddress;\n    }\n\n    function mintToken(bytes32[] memory merkleProof) external {\n        require(!dropped[msg.sender], \"Already dropped\");\n        require(merkleProof.length == proofLength, \"Tree length mismatch\");\n        require(address(uint160(uint256(merkleProof[0]))) == msg.sender, \"First Merkle leaf should be the msg.sender's address\");\n        require(proofHash(merkleProof) == merkleRoot, \"Merkle proof failed\");\n\n        dropped[msg.sender] = true;\n        token.mint(msg.sender, dropPerAddress);\n        _latestAcceptedProof = merkleProof;\n    }\n\n    function latestAcceptedProof() public view returns (bytes32[] memory) {\n        return _latestAcceptedProof;\n    }\n\n\n    function proofHash(bytes32[] memory nodes) internal pure returns (bytes32 result) {\n        result = pairHash(nodes[0], nodes[1]);\n        for (uint256 i = 2; i < nodes.length; i++) {\n            result = pairHash(result, nodes[i]);\n        }\n    }\n\n    function pairHash(bytes32 a, bytes32 b) internal pure returns (bytes32) {\n        return keccak256(abi.encode(a ^ b));\n    }\n}\n",
  "sourcePath": "contracts/Airdrop.sol",
  "type": "contract"
}