{
  "abi": [
    {
      "inputs": [
        {
          "internalType": "string",
          "name": "_name",
          "type": "string"
        },
        {
          "internalType": "string",
          "name": "_symbol",
          "type": "string"
        },
        {
          "internalType": "string",
          "name": "_initBaseURI",
          "type": "string"
        }
      ],
      "stateMutability": "nonpayable",
      "type": "constructor"
    },
    {
      "anonymous": false,
      "inputs": [
        {
          "indexed": true,
          "internalType": "address",
          "name": "owner",
          "type": "address"
        },
        {
          "indexed": true,
          "internalType": "address",
          "name": "approved",
          "type": "address"
        },
        {
          "indexed": true,
          "internalType": "uint256",
          "name": "tokenId",
          "type": "uint256"
        }
      ],
      "name": "Approval",
      "type": "event"
    },
    {
      "anonymous": false,
      "inputs": [
        {
          "indexed": true,
          "internalType": "address",
          "name": "owner",
          "type": "address"
        },
        {
          "indexed": true,
          "internalType": "address",
          "name": "operator",
          "type": "address"
        },
        {
          "indexed": false,
          "internalType": "bool",
          "name": "approved",
          "type": "bool"
        }
      ],
      "name": "ApprovalForAll",
      "type": "event"
    },
    {
      "anonymous": false,
      "inputs": [
        {
          "indexed": true,
          "internalType": "address",
          "name": "previousOwner",
          "type": "address"
        },
        {
          "indexed": true,
          "internalType": "address",
          "name": "newOwner",
          "type": "address"
        }
      ],
      "name": "OwnershipTransferred",
      "type": "event"
    },
    {
      "anonymous": false,
      "inputs": [
        {
          "indexed": true,
          "internalType": "address",
          "name": "from",
          "type": "address"
        },
        {
          "indexed": true,
          "internalType": "address",
          "name": "to",
          "type": "address"
        },
        {
          "indexed": true,
          "internalType": "uint256",
          "name": "tokenId",
          "type": "uint256"
        }
      ],
      "name": "Transfer",
      "type": "event"
    },
    {
      "inputs": [
        {
          "internalType": "address",
          "name": "to",
          "type": "address"
        },
        {
          "internalType": "uint256",
          "name": "tokenId",
          "type": "uint256"
        }
      ],
      "name": "approve",
      "outputs": [],
      "stateMutability": "nonpayable",
      "type": "function"
    },
    {
      "inputs": [
        {
          "internalType": "address",
          "name": "owner",
          "type": "address"
        }
      ],
      "name": "balanceOf",
      "outputs": [
        {
          "internalType": "uint256",
          "name": "",
          "type": "uint256"
        }
      ],
      "stateMutability": "view",
      "type": "function"
    },
    {
      "inputs": [],
      "name": "baseExtension",
      "outputs": [
        {
          "internalType": "string",
          "name": "",
          "type": "string"
        }
      ],
      "stateMutability": "view",
      "type": "function"
    },
    {
      "inputs": [],
      "name": "baseURI",
      "outputs": [
        {
          "internalType": "string",
          "name": "",
          "type": "string"
        }
      ],
      "stateMutability": "view",
      "type": "function"
    },
    {
      "inputs": [],
      "name": "flipPublicSaleOn",
      "outputs": [],
      "stateMutability": "nonpayable",
      "type": "function"
    },
    {
      "inputs": [],
      "name": "flipSantaAlgorithmOn",
      "outputs": [],
      "stateMutability": "nonpayable",
      "type": "function"
    },
    {
      "inputs": [
        {
          "internalType": "uint256",
          "name": "tokenId",
          "type": "uint256"
        }
      ],
      "name": "getApproved",
      "outputs": [
        {
          "internalType": "address",
          "name": "",
          "type": "address"
        }
      ],
      "stateMutability": "view",
      "type": "function"
    },
    {
      "inputs": [
        {
          "internalType": "address",
          "name": "owner",
          "type": "address"
        },
        {
          "internalType": "address",
          "name": "operator",
          "type": "address"
        }
      ],
      "name": "isApprovedForAll",
      "outputs": [
        {
          "internalType": "bool",
          "name": "",
          "type": "bool"
        }
      ],
      "stateMutability": "view",
      "type": "function"
    },
    {
      "inputs": [],
      "name": "maxSupply",
      "outputs": [
        {
          "internalType": "uint256",
          "name": "",
          "type": "uint256"
        }
      ],
      "stateMutability": "view",
      "type": "function"
    },
    {
      "inputs": [
        {
          "internalType": "address",
          "name": "_to",
          "type": "address"
        },
        {
          "internalType": "uint256",
          "name": "_mintAmount",
          "type": "uint256"
        }
      ],
      "name": "mint",
      "outputs": [],
      "stateMutability": "payable",
      "type": "function"
    },
    {
      "inputs": [
        {
          "internalType": "address",
          "name": "",
          "type": "address"
        }
      ],
      "name": "minted",
      "outputs": [
        {
          "internalType": "uint256",
          "name": "",
          "type": "uint256"
        }
      ],
      "stateMutability": "view",
      "type": "function"
    },
    {
      "inputs": [],
      "name": "name",
      "outputs": [
        {
          "internalType": "string",
          "name": "",
          "type": "string"
        }
      ],
      "stateMutability": "view",
      "type": "function"
    },
    {
      "inputs": [],
      "name": "owner",
      "outputs": [
        {
          "internalType": "address",
          "name": "",
          "type": "address"
        }
      ],
      "stateMutability": "view",
      "type": "function"
    },
    {
      "inputs": [
        {
          "internalType": "uint256",
          "name": "tokenId",
          "type": "uint256"
        }
      ],
      "name": "ownerOf",
      "outputs": [
        {
          "internalType": "address",
          "name": "",
          "type": "address"
        }
      ],
      "stateMutability": "view",
      "type": "function"
    },
    {
      "inputs": [],
      "name": "preSaleCost",
      "outputs": [
        {
          "internalType": "uint256",
          "name": "",
          "type": "uint256"
        }
      ],
      "stateMutability": "view",
      "type": "function"
    },
    {
      "inputs": [],
      "name": "preSaleMaxMintAmount",
      "outputs": [
        {
          "internalType": "uint256",
          "name": "",
          "type": "uint256"
        }
      ],
      "stateMutability": "view",
      "type": "function"
    },
    {
      "inputs": [],
      "name": "preSaleOn",
      "outputs": [
        {
          "internalType": "bool",
          "name": "",
          "type": "bool"
        }
      ],
      "stateMutability": "view",
      "type": "function"
    },
    {
      "inputs": [],
      "name": "prize01ETH",
      "outputs": [
        {
          "internalType": "uint256",
          "name": "",
          "type": "uint256"
        }
      ],
      "stateMutability": "view",
      "type": "function"
    },
    {
      "inputs": [],
      "name": "prize05ETH",
      "outputs": [
        {
          "internalType": "uint256",
          "name": "",
          "type": "uint256"
        }
      ],
      "stateMutability": "view",
      "type": "function"
    },
    {
      "inputs": [],
      "name": "prize1ETH",
      "outputs": [
        {
          "internalType": "uint256",
          "name": "",
          "type": "uint256"
        }
      ],
      "stateMutability": "view",
      "type": "function"
    },
    {
      "inputs": [],
      "name": "prizeAmount",
      "outputs": [
        {
          "internalType": "uint256",
          "name": "",
          "type": "uint256"
        }
      ],
      "stateMutability": "view",
      "type": "function"
    },
    {
      "inputs": [],
      "name": "publicSaleCost",
      "outputs": [
        {
          "internalType": "uint256",
          "name": "",
          "type": "uint256"
        }
      ],
      "stateMutability": "view",
      "type": "function"
    },
    {
      "inputs": [],
      "name": "publicSaleMaxMintAmount",
      "outputs": [
        {
          "internalType": "uint256",
          "name": "",
          "type": "uint256"
        }
      ],
      "stateMutability": "view",
      "type": "function"
    },
    {
      "inputs": [],
      "name": "publicSaleOn",
      "outputs": [
        {
          "internalType": "bool",
          "name": "",
          "type": "bool"
        }
      ],
      "stateMutability": "view",
      "type": "function"
    },
    {
      "inputs": [],
      "name": "renounceOwnership",
      "outputs": [],
      "stateMutability": "nonpayable",
      "type": "function"
    },
    {
      "inputs": [],
      "name": "reserved",
      "outputs": [
        {
          "internalType": "uint256",
          "name": "",
          "type": "uint256"
        }
      ],
      "stateMutability": "view",
      "type": "function"
    },
    {
      "inputs": [],
      "name": "revealed",
      "outputs": [
        {
          "internalType": "bool",
          "name": "",
          "type": "bool"
        }
      ],
      "stateMutability": "view",
      "type": "function"
    },
    {
      "inputs": [
        {
          "internalType": "address",
          "name": "from",
          "type": "address"
        },
        {
          "internalType": "address",
          "name": "to",
          "type": "address"
        },
        {
          "internalType": "uint256",
          "name": "tokenId",
          "type": "uint256"
        }
      ],
      "name": "safeTransferFrom",
      "outputs": [],
      "stateMutability": "nonpayable",
      "type": "function"
    },
    {
      "inputs": [
        {
          "internalType": "address",
          "name": "from",
          "type": "address"
        },
        {
          "internalType": "address",
          "name": "to",
          "type": "address"
        },
        {
          "internalType": "uint256",
          "name": "tokenId",
          "type": "uint256"
        },
        {
          "internalType": "bytes",
          "name": "_data",
          "type": "bytes"
        }
      ],
      "name": "safeTransferFrom",
      "outputs": [],
      "stateMutability": "nonpayable",
      "type": "function"
    },
    {
      "inputs": [],
      "name": "santaAlgorithmOn",
      "outputs": [
        {
          "internalType": "bool",
          "name": "",
          "type": "bool"
        }
      ],
      "stateMutability": "view",
      "type": "function"
    },
    {
      "inputs": [
        {
          "internalType": "address",
          "name": "operator",
          "type": "address"
        },
        {
          "internalType": "bool",
          "name": "approved",
          "type": "bool"
        }
      ],
      "name": "setApprovalForAll",
      "outputs": [],
      "stateMutability": "nonpayable",
      "type": "function"
    },
    {
      "inputs": [
        {
          "internalType": "string",
          "name": "_newBaseURI",
          "type": "string"
        }
      ],
      "name": "setBaseURI",
      "outputs": [],
      "stateMutability": "nonpayable",
      "type": "function"
    },
    {
      "inputs": [
        {
          "internalType": "uint256",
          "name": "_prizeAmount",
          "type": "uint256"
        }
      ],
      "name": "setPrizeAmount",
      "outputs": [],
      "stateMutability": "nonpayable",
      "type": "function"
    },
    {
      "inputs": [
        {
          "internalType": "bytes4",
          "name": "interfaceId",
          "type": "bytes4"
        }
      ],
      "name": "supportsInterface",
      "outputs": [
        {
          "internalType": "bool",
          "name": "",
          "type": "bool"
        }
      ],
      "stateMutability": "view",
      "type": "function"
    },
    {
      "inputs": [],
      "name": "symbol",
      "outputs": [
        {
          "internalType": "string",
          "name": "",
          "type": "string"
        }
      ],
      "stateMutability": "view",
      "type": "function"
    },
    {
      "inputs": [
        {
          "internalType": "uint256",
          "name": "index",
          "type": "uint256"
        }
      ],
      "name": "tokenByIndex",
      "outputs": [
        {
          "internalType": "uint256",
          "name": "",
          "type": "uint256"
        }
      ],
      "stateMutability": "view",
      "type": "function"
    },
    {
      "inputs": [
        {
          "internalType": "address",
          "name": "owner",
          "type": "address"
        },
        {
          "internalType": "uint256",
          "name": "index",
          "type": "uint256"
        }
      ],
      "name": "tokenOfOwnerByIndex",
      "outputs": [
        {
          "internalType": "uint256",
          "name": "",
          "type": "uint256"
        }
      ],
      "stateMutability": "view",
      "type": "function"
    },
    {
      "inputs": [
        {
          "internalType": "uint256",
          "name": "tokenId",
          "type": "uint256"
        }
      ],
      "name": "tokenURI",
      "outputs": [
        {
          "internalType": "string",
          "name": "",
          "type": "string"
        }
      ],
      "stateMutability": "view",
      "type": "function"
    },
    {
      "inputs": [],
      "name": "totalSupply",
      "outputs": [
        {
          "internalType": "uint256",
          "name": "",
          "type": "uint256"
        }
      ],
      "stateMutability": "view",
      "type": "function"
    },
    {
      "inputs": [
        {
          "internalType": "address",
          "name": "from",
          "type": "address"
        },
        {
          "internalType": "address",
          "name": "to",
          "type": "address"
        },
        {
          "internalType": "uint256",
          "name": "tokenId",
          "type": "uint256"
        }
      ],
      "name": "transferFrom",
      "outputs": [],
      "stateMutability": "nonpayable",
      "type": "function"
    },
    {
      "inputs": [
        {
          "internalType": "address",
          "name": "newOwner",
          "type": "address"
        }
      ],
      "name": "transferOwnership",
      "outputs": [],
      "stateMutability": "nonpayable",
      "type": "function"
    },
    {
      "inputs": [
        {
          "internalType": "address",
          "name": "",
          "type": "address"
        }
      ],
      "name": "whiteListedWallets",
      "outputs": [
        {
          "internalType": "bool",
          "name": "",
          "type": "bool"
        }
      ],
      "stateMutability": "view",
      "type": "function"
    },
    {
      "stateMutability": "payable",
      "type": "receive"
    }
  ],
  "bytecode": "60c06040526005608090815264173539b7b760d91b60a052600c906200002690826200027b565b50600d805463ffffffff191690556109c4600e556064600f5566c3663566a5800060105566e6ed27d6668000601155600360125560066013556753444835ec580000601455670de0b6b3a76400006015556706f05b59d3b2000060165567016345785d8a00006017553480156200009c57600080fd5b5060405162002ca938038062002ca9833981016040819052620000bf91620003f6565b82826000620000cf83826200027b565b506001620000de82826200027b565b505050620000fb620000f56200010f60201b60201c565b62000113565b620001068162000165565b50505062000487565b3390565b600a80546001600160a01b038381166001600160a01b0319831681179093556040519116919082907f8be0079c531659141344cd1fd0a4f28419497f9722a3daafe3b4186f6b6457e090600090a35050565b600a546001600160a01b03163314620001c45760405162461bcd60e51b815260206004820181905260248201527f4f776e61626c653a2063616c6c6572206973206e6f7420746865206f776e6572604482015260640160405180910390fd5b600b620001d282826200027b565b5050565b634e487b7160e01b600052604160045260246000fd5b600181811c908216806200020157607f821691505b6020821081036200022257634e487b7160e01b600052602260045260246000fd5b50919050565b601f8211156200027657600081815260208120601f850160051c81016020861015620002515750805b601f850160051c820191505b8181101562000272578281556001016200025d565b5050505b505050565b81516001600160401b03811115620002975762000297620001d6565b620002af81620002a88454620001ec565b8462000228565b602080601f831160018114620002e75760008415620002ce5750858301515b600019600386901b1c1916600185901b17855562000272565b600085815260208120601f198616915b828110156200031857888601518255948401946001909101908401620002f7565b5085821015620003375787850151600019600388901b60f8161c191681555b5050505050600190811b01905550565b600082601f8301126200035957600080fd5b81516001600160401b0380821115620003765762000376620001d6565b604051601f8301601f19908116603f01168101908282118183101715620003a157620003a1620001d6565b81604052838152602092508683858801011115620003be57600080fd5b600091505b83821015620003e25785820183015181830184015290820190620003c3565b600093810190920192909252949350505050565b6000806000606084860312156200040c57600080fd5b83516001600160401b03808211156200042457600080fd5b620004328783880162000347565b945060208601519150808211156200044957600080fd5b620004578783880162000347565b935060408601519150808211156200046e57600080fd5b506200047d8682870162000347565b9150509250925092565b61281280620004976000396000f3fe6080604052600436106102555760003560e01c806370a0823111610139578063c6682862116100b6578063d5abeb011161007a578063d5abeb011461069c578063e985e9c5146106b2578063ed19d265146106fb578063f2fde38b14610710578063f53280f714610730578063fe60d12c1461074657600080fd5b8063c668286214610625578063c87b56dd1461063a578063c99bc1c71461065a578063cc9ff9c614610670578063cd5611791461068657600080fd5b806395d89b41116100fd57806395d89b41146105a1578063a1f92b37146105b6578063a22cb465146105cb578063a2be7c29146105eb578063b88d4fde1461060557600080fd5b806370a0823114610519578063715018a614610539578063785fa6271461054e5780637cd95912146105645780638da5cb5b1461058357600080fd5b80632f745c59116101d257806351386532116101965780635138653214610453578063518302271461047357806355f804b3146104945780635c624220146104b45780636352211e146104e45780636c0360eb1461050457600080fd5b80632f745c59146103ca57806340c10f19146103ea57806342842e0e146103fd578063453afb0f1461041d5780634f6ccce71461043357600080fd5b806318160ddd1161021957806318160ddd146103325780631dffa7cd146103515780631e7269c51461036757806323b872dd146103945780632ad0a197146103b457600080fd5b806301ffc9a71461026157806306fdde0314610296578063081812fc146102b8578063095ea7b3146102f05780630b377e981461031257600080fd5b3661025c57005b600080fd5b34801561026d57600080fd5b5061028161027c36600461211f565b61075c565b60405190151581526020015b60405180910390f35b3480156102a257600080fd5b506102ab610787565b60405161028d919061218c565b3480156102c457600080fd5b506102d86102d336600461219f565b610819565b6040516001600160a01b03909116815260200161028d565b3480156102fc57600080fd5b5061031061030b3660046121d4565b6108b3565b005b34801561031e57600080fd5b50600d546102819062010000900460ff1681565b34801561033e57600080fd5b506008545b60405190815260200161028d565b34801561035d57600080fd5b5061034360155481565b34801561037357600080fd5b506103436103823660046121fe565b60186020526000908152604090205481565b3480156103a057600080fd5b506103106103af366004612219565b6109c8565b3480156103c057600080fd5b5061034360135481565b3480156103d657600080fd5b506103436103e53660046121d4565b6109f9565b6103106103f83660046121d4565b610a8f565b34801561040957600080fd5b50610310610418366004612219565b6110cd565b34801561042957600080fd5b5061034360115481565b34801561043f57600080fd5b5061034361044e36600461219f565b6110e8565b34801561045f57600080fd5b5061031061046e36600461219f565b61117b565b34801561047f57600080fd5b50600d54610281906301000000900460ff1681565b3480156104a057600080fd5b506103106104af3660046122e1565b6111aa565b3480156104c057600080fd5b506102816104cf3660046121fe565b60196020526000908152604090205460ff1681565b3480156104f057600080fd5b506102d86104ff36600461219f565b6111e4565b34801561051057600080fd5b506102ab61125b565b34801561052557600080fd5b506103436105343660046121fe565b6112e9565b34801561054557600080fd5b50610310611370565b34801561055a57600080fd5b5061034360145481565b34801561057057600080fd5b50600d5461028190610100900460ff1681565b34801561058f57600080fd5b50600a546001600160a01b03166102d8565b3480156105ad57600080fd5b506102ab6113a6565b3480156105c257600080fd5b506103106113b5565b3480156105d757600080fd5b506103106105e636600461232a565b6113fe565b3480156105f757600080fd5b50600d546102819060ff1681565b34801561061157600080fd5b50610310610620366004612366565b611409565b34801561063157600080fd5b506102ab61143b565b34801561064657600080fd5b506102ab61065536600461219f565b611448565b34801561066657600080fd5b5061034360125481565b34801561067c57600080fd5b5061034360105481565b34801561069257600080fd5b5061034360175481565b3480156106a857600080fd5b50610343600e5481565b3480156106be57600080fd5b506102816106cd3660046123e2565b6001600160a01b03918216600090815260056020908152604080832093909416825291909152205460ff1690565b34801561070757600080fd5b50610310611523565b34801561071c57600080fd5b5061031061072b3660046121fe565b61156a565b34801561073c57600080fd5b5061034360165481565b34801561075257600080fd5b50610343600f5481565b60006001600160e01b0319821663780e9d6360e01b1480610781575061078182611605565b92915050565b60606000805461079690612415565b80601f01602080910402602001604051908101604052809291908181526020018280546107c290612415565b801561080f5780601f106107e45761010080835404028352916020019161080f565b820191906000526020600020905b8154815290600101906020018083116107f257829003601f168201915b5050505050905090565b6000818152600260205260408120546001600160a01b03166108975760405162461bcd60e51b815260206004820152602c60248201527f4552433732313a20617070726f76656420717565727920666f72206e6f6e657860448201526b34b9ba32b73a103a37b5b2b760a11b60648201526084015b60405180910390fd5b506000908152600460205260409020546001600160a01b031690565b60006108be826111e4565b9050806001600160a01b0316836001600160a01b03160361092b5760405162461bcd60e51b815260206004820152602160248201527f4552433732313a20617070726f76616c20746f2063757272656e74206f776e656044820152603960f91b606482015260840161088e565b336001600160a01b0382161480610947575061094781336106cd565b6109b95760405162461bcd60e51b815260206004820152603860248201527f4552433732313a20617070726f76652063616c6c6572206973206e6f74206f7760448201527f6e6572206e6f7220617070726f76656420666f7220616c6c0000000000000000606482015260840161088e565b6109c38383611655565b505050565b6109d233826116c3565b6109ee5760405162461bcd60e51b815260040161088e9061244f565b6109c38383836117ba565b6000610a04836112e9565b8210610a665760405162461bcd60e51b815260206004820152602b60248201527f455243373231456e756d657261626c653a206f776e657220696e646578206f7560448201526a74206f6620626f756e647360a81b606482015260840161088e565b506001600160a01b03919091166000908152600660209081526040808320938352929052205490565b600d5460009060ff1680610aaa5750600d54610100900460ff165b905080610aeb5760405162461bcd60e51b815260206004820152600f60248201526e29b0b6329036bab9ba1031329027a760891b604482015260640161088e565b6000610af660085490565b9050610b0a600a546001600160a01b031690565b6001600160a01b0316336001600160a01b031614610ef857600d5460ff1615610d3657600d5460ff16610b745760405162461bcd60e51b8152602060048201526012602482015271283932b9b0b6329036bab9ba1031329027a760711b604482015260640161088e565b60008311610bc45760405162461bcd60e51b815260206004820181905260248201527f4d696e742061626d6f756e74206d757374206265206d6f7265207468616e2030604482015260640161088e565b3360009081526019602052604090205460ff161515600114610c285760405162461bcd60e51b815260206004820152601760248201527f596f75206172656e27742077686974656c697374656421000000000000000000604482015260640161088e565b600e54610c3584836124b6565b1115610c535760405162461bcd60e51b815260040161088e906124c9565b60125433600090815260186020526040902054610c719085906124b6565b1115610cd45760405162461bcd60e51b815260206004820152602c60248201527f507572636861736520776f756c6420657863656564206d617820746f6b656e7360448201526b20666f722070726573616c6560a01b606482015260840161088e565b82601054610ce29190612511565b341015610d315760405162461bcd60e51b815260206004820152601f60248201527f45746865722076616c75652073656e74206973206e6f7420636f727265637400604482015260640161088e565b610ef8565b600d54610100900460ff1615610ef857600d54610100900460ff16610d955760405162461bcd60e51b8152602060048201526015602482015274283ab13634b1b9b0b6329036bab9ba1031329027a760591b604482015260640161088e565b60008311610de55760405162461bcd60e51b815260206004820181905260248201527f4d696e742061626d6f756e74206d757374206265206d6f7265207468616e2030604482015260640161088e565b600f54600e54610df59190612528565b610dff84836124b6565b1115610e1d5760405162461bcd60e51b815260040161088e906124c9565b60135433600090815260186020526040902054610e3b9085906124b6565b1115610e9b5760405162461bcd60e51b815260206004820152602960248201527f507572636861736520776f756c6420657863656564206d617820746f6b656e7360448201526820666f722073616c6560b81b606482015260840161088e565b82601154610ea99190612511565b341015610ef85760405162461bcd60e51b815260206004820152601f60248201527f45746865722076616c75652073656e74206973206e6f7420636f727265637400604482015260640161088e565b60015b838111610f2757610f1585610f1083856124b6565b611961565b80610f1f8161253b565b915050610efb565b503360009081526018602052604081208054859290610f479084906124b6565b9091555050600d5462010000900460ff168015610f6657506000601454115b8015610f7d5750600a546001600160a01b03163314155b156110c7576000610f8c61197b565b9050600181108015610f9f575060155447115b15610ffb576015546040516001600160a01b0387169180156108fc02916000818181858888f19350505050158015610fdb573d6000803e3d6000fd5b5060155460146000828254610ff09190612528565b909155506110c59050565b60048110801561100c575060165447115b1561105d576016546040516001600160a01b0387169180156108fc02916000818181858888f19350505050158015611048573d6000803e3d6000fd5b5060165460146000828254610ff09190612528565b60508110801561106e575060175447115b156110c5576017546040516001600160a01b0387169180156108fc02916000818181858888f193505050501580156110aa573d6000803e3d6000fd5b50601754601460008282546110bf9190612528565b90915550505b505b50505050565b6109c383838360405180602001604052806000815250611409565b60006110f360085490565b82106111565760405162461bcd60e51b815260206004820152602c60248201527f455243373231456e756d657261626c653a20676c6f62616c20696e646578206f60448201526b7574206f6620626f756e647360a01b606482015260840161088e565b6008828154811061116957611169612554565b90600052602060002001549050919050565b600a546001600160a01b031633146111a55760405162461bcd60e51b815260040161088e9061256a565b601455565b600a546001600160a01b031633146111d45760405162461bcd60e51b815260040161088e9061256a565b600b6111e082826125ed565b5050565b6000818152600260205260408120546001600160a01b0316806107815760405162461bcd60e51b815260206004820152602960248201527f4552433732313a206f776e657220717565727920666f72206e6f6e657869737460448201526832b73a103a37b5b2b760b91b606482015260840161088e565b600b805461126890612415565b80601f016020809104026020016040519081016040528092919081815260200182805461129490612415565b80156112e15780601f106112b6576101008083540402835291602001916112e1565b820191906000526020600020905b8154815290600101906020018083116112c457829003601f168201915b505050505081565b60006001600160a01b0382166113545760405162461bcd60e51b815260206004820152602a60248201527f4552433732313a2062616c616e636520717565727920666f7220746865207a65604482015269726f206164647265737360b01b606482015260840161088e565b506001600160a01b031660009081526003602052604090205490565b600a546001600160a01b0316331461139a5760405162461bcd60e51b815260040161088e9061256a565b6113a460006119dc565b565b60606001805461079690612415565b600a546001600160a01b031633146113df5760405162461bcd60e51b815260040161088e9061256a565b600d805462ff0000198116620100009182900460ff1615909102179055565b6111e0338383611a2e565b61141333836116c3565b61142f5760405162461bcd60e51b815260040161088e9061244f565b6110c784848484611afc565b600c805461126890612415565b6000818152600260205260409020546060906001600160a01b03166114c75760405162461bcd60e51b815260206004820152602f60248201527f4552433732314d657461646174613a2055524920717565727920666f72206e6f60448201526e3732bc34b9ba32b73a103a37b5b2b760891b606482015260840161088e565b60006114d1611b2f565b905060008151116114f1576040518060200160405280600081525061151c565b806114fb84611b3e565b60405160200161150c9291906126ad565b6040516020818303038152906040525b9392505050565b600a546001600160a01b0316331461154d5760405162461bcd60e51b815260040161088e9061256a565b600d805461ff001981166101009182900460ff1615909102179055565b600a546001600160a01b031633146115945760405162461bcd60e51b815260040161088e9061256a565b6001600160a01b0381166115f95760405162461bcd60e51b815260206004820152602660248201527f4f776e61626c653a206e6577206f776e657220697320746865207a65726f206160448201526564647265737360d01b606482015260840161088e565b611602816119dc565b50565b60006001600160e01b031982166380ac58cd60e01b148061163657506001600160e01b03198216635b5e139f60e01b145b8061078157506301ffc9a760e01b6001600160e01b0319831614610781565b600081815260046020526040902080546001600160a01b0319166001600160a01b038416908117909155819061168a826111e4565b6001600160a01b03167f8c5be1e5ebec7d5bd14f71427d1e84f3dd0314c0f7b2291e5b200ac8c7c3b92560405160405180910390a45050565b6000818152600260205260408120546001600160a01b031661173c5760405162461bcd60e51b815260206004820152602c60248201527f4552433732313a206f70657261746f7220717565727920666f72206e6f6e657860448201526b34b9ba32b73a103a37b5b2b760a11b606482015260840161088e565b6000611747836111e4565b9050806001600160a01b0316846001600160a01b031614806117825750836001600160a01b031661177784610819565b6001600160a01b0316145b806117b257506001600160a01b0380821660009081526005602090815260408083209388168352929052205460ff165b949350505050565b826001600160a01b03166117cd826111e4565b6001600160a01b0316146118315760405162461bcd60e51b815260206004820152602560248201527f4552433732313a207472616e736665722066726f6d20696e636f72726563742060448201526437bbb732b960d91b606482015260840161088e565b6001600160a01b0382166118935760405162461bcd60e51b8152602060048201526024808201527f4552433732313a207472616e7366657220746f20746865207a65726f206164646044820152637265737360e01b606482015260840161088e565b61189e838383611c3f565b6118a9600082611655565b6001600160a01b03831660009081526003602052604081208054600192906118d2908490612528565b90915550506001600160a01b03821660009081526003602052604081208054600192906119009084906124b6565b909155505060008181526002602052604080822080546001600160a01b0319166001600160a01b0386811691821790925591518493918716917fddf252ad1be2c89b69c2b068fc378daa952ba7f163c4a11628f55a4df523b3ef91a4505050565b6111e0828260405180602001604052806000815250611cf7565b6000806103e74244336040516020016119b993929190928352602083019190915260601b6bffffffffffffffffffffffff1916604082015260540190565b6040516020818303038152906040528051906020012060001c61078191906126f2565b600a80546001600160a01b038381166001600160a01b0319831681179093556040519116919082907f8be0079c531659141344cd1fd0a4f28419497f9722a3daafe3b4186f6b6457e090600090a35050565b816001600160a01b0316836001600160a01b031603611a8f5760405162461bcd60e51b815260206004820152601960248201527f4552433732313a20617070726f766520746f2063616c6c657200000000000000604482015260640161088e565b6001600160a01b03838116600081815260056020908152604080832094871680845294825291829020805460ff191686151590811790915591519182527f17307eab39ab6107e8899845ad3d59bd9653f200f220920489ca2b5937696c31910160405180910390a3505050565b611b078484846117ba565b611b1384848484611d2a565b6110c75760405162461bcd60e51b815260040161088e90612706565b6060600b805461079690612415565b606081600003611b655750506040805180820190915260018152600360fc1b602082015290565b8160005b8115611b8f5780611b798161253b565b9150611b889050600a83612758565b9150611b69565b60008167ffffffffffffffff811115611baa57611baa612255565b6040519080825280601f01601f191660200182016040528015611bd4576020820181803683370190505b5090505b84156117b257611be9600183612528565b9150611bf6600a866126f2565b611c019060306124b6565b60f81b818381518110611c1657611c16612554565b60200101906001600160f81b031916908160001a905350611c38600a86612758565b9450611bd8565b6001600160a01b038316611c9a57611c9581600880546000838152600960205260408120829055600182018355919091527ff3f7a9fe364faab93b216da50a3214154f22a0a2b415b23a84c8169e8b636ee30155565b611cbd565b816001600160a01b0316836001600160a01b031614611cbd57611cbd8382611e2b565b6001600160a01b038216611cd4576109c381611ec8565b826001600160a01b0316826001600160a01b0316146109c3576109c38282611f77565b611d018383611fbb565b611d0e6000848484611d2a565b6109c35760405162461bcd60e51b815260040161088e90612706565b60006001600160a01b0384163b15611e2057604051630a85bd0160e11b81526001600160a01b0385169063150b7a0290611d6e90339089908890889060040161276c565b6020604051808303816000875af1925050508015611da9575060408051601f3d908101601f19168201909252611da6918101906127a9565b60015b611e06573d808015611dd7576040519150601f19603f3d011682016040523d82523d6000602084013e611ddc565b606091505b508051600003611dfe5760405162461bcd60e51b815260040161088e90612706565b805181602001fd5b6001600160e01b031916630a85bd0160e11b1490506117b2565b506001949350505050565b60006001611e38846112e9565b611e429190612528565b600083815260076020526040902054909150808214611e95576001600160a01b03841660009081526006602090815260408083208584528252808320548484528184208190558352600790915290208190555b5060009182526007602090815260408084208490556001600160a01b039094168352600681528383209183525290812055565b600854600090611eda90600190612528565b60008381526009602052604081205460088054939450909284908110611f0257611f02612554565b906000526020600020015490508060088381548110611f2357611f23612554565b6000918252602080832090910192909255828152600990915260408082208490558582528120556008805480611f5b57611f5b6127c6565b6001900381819060005260206000200160009055905550505050565b6000611f82836112e9565b6001600160a01b039093166000908152600660209081526040808320868452825280832085905593825260079052919091209190915550565b6001600160a01b0382166120115760405162461bcd60e51b815260206004820181905260248201527f4552433732313a206d696e7420746f20746865207a65726f2061646472657373604482015260640161088e565b6000818152600260205260409020546001600160a01b0316156120765760405162461bcd60e51b815260206004820152601c60248201527f4552433732313a20746f6b656e20616c7265616479206d696e74656400000000604482015260640161088e565b61208260008383611c3f565b6001600160a01b03821660009081526003602052604081208054600192906120ab9084906124b6565b909155505060008181526002602052604080822080546001600160a01b0319166001600160a01b03861690811790915590518392907fddf252ad1be2c89b69c2b068fc378daa952ba7f163c4a11628f55a4df523b3ef908290a45050565b6001600160e01b03198116811461160257600080fd5b60006020828403121561213157600080fd5b813561151c81612109565b60005b8381101561215757818101518382015260200161213f565b50506000910152565b6000815180845261217881602086016020860161213c565b601f01601f19169290920160200192915050565b60208152600061151c6020830184612160565b6000602082840312156121b157600080fd5b5035919050565b80356001600160a01b03811681146121cf57600080fd5b919050565b600080604083850312156121e757600080fd5b6121f0836121b8565b946020939093013593505050565b60006020828403121561221057600080fd5b61151c826121b8565b60008060006060848603121561222e57600080fd5b612237846121b8565b9250612245602085016121b8565b9150604084013590509250925092565b634e487b7160e01b600052604160045260246000fd5b600067ffffffffffffffff8084111561228657612286612255565b604051601f8501601f19908116603f011681019082821181831017156122ae576122ae612255565b816040528093508581528686860111156122c757600080fd5b858560208301376000602087830101525050509392505050565b6000602082840312156122f357600080fd5b813567ffffffffffffffff81111561230a57600080fd5b8201601f8101841361231b57600080fd5b6117b28482356020840161226b565b6000806040838503121561233d57600080fd5b612346836121b8565b91506020830135801515811461235b57600080fd5b809150509250929050565b6000806000806080858703121561237c57600080fd5b612385856121b8565b9350612393602086016121b8565b925060408501359150606085013567ffffffffffffffff8111156123b657600080fd5b8501601f810187136123c757600080fd5b6123d68782356020840161226b565b91505092959194509250565b600080604083850312156123f557600080fd5b6123fe836121b8565b915061240c602084016121b8565b90509250929050565b600181811c9082168061242957607f821691505b60208210810361244957634e487b7160e01b600052602260045260246000fd5b50919050565b60208082526031908201527f4552433732313a207472616e736665722063616c6c6572206973206e6f74206f6040820152701ddb995c881b9bdc88185c1c1c9bdd9959607a1b606082015260800190565b634e487b7160e01b600052601160045260246000fd5b80820180821115610781576107816124a0565b60208082526028908201527f507572636861736520776f756c6420657863656564206d617820737570706c79604082015267206f66204e46547360c01b606082015260800190565b8082028115828204841417610781576107816124a0565b81810381811115610781576107816124a0565b60006001820161254d5761254d6124a0565b5060010190565b634e487b7160e01b600052603260045260246000fd5b6020808252818101527f4f776e61626c653a2063616c6c6572206973206e6f7420746865206f776e6572604082015260600190565b601f8211156109c357600081815260208120601f850160051c810160208610156125c65750805b601f850160051c820191505b818110156125e5578281556001016125d2565b505050505050565b815167ffffffffffffffff81111561260757612607612255565b61261b816126158454612415565b8461259f565b602080601f83116001811461265057600084156126385750858301515b600019600386901b1c1916600185901b1785556125e5565b600085815260208120601f198616915b8281101561267f57888601518255948401946001909101908401612660565b508582101561269d5787850151600019600388901b60f8161c191681555b5050505050600190811b01905550565b600083516126bf81846020880161213c565b8351908301906126d381836020880161213c565b01949350505050565b634e487b7160e01b600052601260045260246000fd5b600082612701576127016126dc565b500690565b60208082526032908201527f4552433732313a207472616e7366657220746f206e6f6e20455243373231526560408201527131b2b4bb32b91034b6b83632b6b2b73a32b960711b606082015260800190565b600082612767576127676126dc565b500490565b6001600160a01b038581168252841660208201526040810183905260806060820181905260009061279f90830184612160565b9695505050505050565b6000602082840312156127bb57600080fd5b815161151c81612109565b634e487b7160e01b600052603160045260246000fdfea26469706673582212205d985e71527649f99c1be0fb50d5a7477c61373a972265c969b16c8c07ce76d964736f6c63430008110033",
  "bytecodeSha1": "a15822de3752b345dcf8a6da93ca6ed58fdcc6b7",
  "compiler": {
    "evm_version": "istanbul",
    "optimizer": {
      "enabled": true,
      "runs": 200
    },
    "version": "0.8.17+commit.8df45f5f"
  },
  "contractName": "LdcNFT",
  "language": "Solidity",
  "natspec": {
    "kind": "dev",
    "methods": {
      "approve(address,uint256)": {
        "details": "See {IERC721-approve}."
      },
      "balanceOf(address)": {
        "details": "See {IERC721-balanceOf}."
      },
      "getApproved(uint256)": {
        "details": "See {IERC721-getApproved}."
      },
      "isApprovedForAll(address,address)": {
        "details": "See {IERC721-isApprovedForAll}."
      },
      "name()": {
        "details": "See {IERC721Metadata-name}."
      },
      "owner()": {
        "details": "Returns the address of the current owner."
      },
      "ownerOf(uint256)": {
        "details": "See {IERC721-ownerOf}."
      },
      "renounceOwnership()": {
        "details": "Leaves the contract without owner. It will not be possible to call `onlyOwner` functions anymore. Can only be called by the current owner. NOTE: Renouncing ownership will leave the contract without an owner, thereby removing any functionality that is only available to the owner."
      },
      "safeTransferFrom(address,address,uint256)": {
        "details": "See {IERC721-safeTransferFrom}."
      },
      "safeTransferFrom(address,address,uint256,bytes)": {
        "details": "See {IERC721-safeTransferFrom}."
      },
      "setApprovalForAll(address,bool)": {
        "details": "See {IERC721-setApprovalForAll}."
      },
      "supportsInterface(bytes4)": {
        "details": "See {IERC165-supportsInterface}."
      },
      "symbol()": {
        "details": "See {IERC721Metadata-symbol}."
      },
      "tokenByIndex(uint256)": {
        "details": "See {IERC721Enumerable-tokenByIndex}."
      },
      "tokenOfOwnerByIndex(address,uint256)": {
        "details": "See {IERC721Enumerable-tokenOfOwnerByIndex}."
      },
      "tokenURI(uint256)": {
        "details": "See {IERC721Metadata-tokenURI}."
      },
      "totalSupply()": {
        "details": "See {IERC721Enumerable-totalSupply}."
      },
      "transferFrom(address,address,uint256)": {
        "details": "See {IERC721-transferFrom}."
      },
      "transferOwnership(address)": {
        "details": "Transfers ownership of the contract to a new account (`newOwner`). Can only be called by the current owner."
      }
    },
    "version": 1
  },
  "opcodes": "PUSH1 0x80 PUSH1 0x40 MSTORE PUSH1 0x4 CALLDATASIZE LT PUSH2 0x255 JUMPI PUSH1 0x0 CALLDATALOAD PUSH1 0xE0 SHR DUP1 PUSH4 0x70A08231 GT PUSH2 0x139 JUMPI DUP1 PUSH4 0xC6682862 GT PUSH2 0xB6 JUMPI DUP1 PUSH4 0xD5ABEB01 GT PUSH2 0x7A JUMPI DUP1 PUSH4 0xD5ABEB01 EQ PUSH2 0x69C JUMPI DUP1 PUSH4 0xE985E9C5 EQ PUSH2 0x6B2 JUMPI DUP1 PUSH4 0xED19D265 EQ PUSH2 0x6FB JUMPI DUP1 PUSH4 0xF2FDE38B EQ PUSH2 0x710 JUMPI DUP1 PUSH4 0xF53280F7 EQ PUSH2 0x730 JUMPI DUP1 PUSH4 0xFE60D12C EQ PUSH2 0x746 JUMPI PUSH1 0x0 DUP1 REVERT JUMPDEST DUP1 PUSH4 0xC6682862 EQ PUSH2 0x625 JUMPI DUP1 PUSH4 0xC87B56DD EQ PUSH2 0x63A JUMPI DUP1 PUSH4 0xC99BC1C7 EQ PUSH2 0x65A JUMPI DUP1 PUSH4 0xCC9FF9C6 EQ PUSH2 0x670 JUMPI DUP1 PUSH4 0xCD561179 EQ PUSH2 0x686 JUMPI PUSH1 0x0 DUP1 REVERT JUMPDEST DUP1 PUSH4 0x95D89B41 GT PUSH2 0xFD JUMPI DUP1 PUSH4 0x95D89B41 EQ PUSH2 0x5A1 JUMPI DUP1 PUSH4 0xA1F92B37 EQ PUSH2 0x5B6 JUMPI DUP1 PUSH4 0xA22CB465 EQ PUSH2 0x5CB JUMPI DUP1 PUSH4 0xA2BE7C29 EQ PUSH2 0x5EB JUMPI DUP1 PUSH4 0xB88D4FDE EQ PUSH2 0x605 JUMPI PUSH1 0x0 DUP1 REVERT JUMPDEST DUP1 PUSH4 0x70A08231 EQ PUSH2 0x519 JUMPI DUP1 PUSH4 0x715018A6 EQ PUSH2 0x539 JUMPI DUP1 PUSH4 0x785FA627 EQ PUSH2 0x54E JUMPI DUP1 PUSH4 0x7CD95912 EQ PUSH2 0x564 JUMPI DUP1 PUSH4 0x8DA5CB5B EQ PUSH2 0x583 JUMPI PUSH1 0x0 DUP1 REVERT JUMPDEST DUP1 PUSH4 0x2F745C59 GT PUSH2 0x1D2 JUMPI DUP1 PUSH4 0x51386532 GT PUSH2 0x196 JUMPI DUP1 PUSH4 0x51386532 EQ PUSH2 0x453 JUMPI DUP1 PUSH4 0x51830227 EQ PUSH2 0x473 JUMPI DUP1 PUSH4 0x55F804B3 EQ PUSH2 0x494 JUMPI DUP1 PUSH4 0x5C624220 EQ PUSH2 0x4B4 JUMPI DUP1 PUSH4 0x6352211E EQ PUSH2 0x4E4 JUMPI DUP1 PUSH4 0x6C0360EB EQ PUSH2 0x504 JUMPI PUSH1 0x0 DUP1 REVERT JUMPDEST DUP1 PUSH4 0x2F745C59 EQ PUSH2 0x3CA JUMPI DUP1 PUSH4 0x40C10F19 EQ PUSH2 0x3EA JUMPI DUP1 PUSH4 0x42842E0E EQ PUSH2 0x3FD JUMPI DUP1 PUSH4 0x453AFB0F EQ PUSH2 0x41D JUMPI DUP1 PUSH4 0x4F6CCCE7 EQ PUSH2 0x433 JUMPI PUSH1 0x0 DUP1 REVERT JUMPDEST DUP1 PUSH4 0x18160DDD GT PUSH2 0x219 JUMPI DUP1 PUSH4 0x18160DDD EQ PUSH2 0x332 JUMPI DUP1 PUSH4 0x1DFFA7CD EQ PUSH2 0x351 JUMPI DUP1 PUSH4 0x1E7269C5 EQ PUSH2 0x367 JUMPI DUP1 PUSH4 0x23B872DD EQ PUSH2 0x394 JUMPI DUP1 PUSH4 0x2AD0A197 EQ PUSH2 0x3B4 JUMPI PUSH1 0x0 DUP1 REVERT JUMPDEST DUP1 PUSH4 0x1FFC9A7 EQ PUSH2 0x261 JUMPI DUP1 PUSH4 0x6FDDE03 EQ PUSH2 0x296 JUMPI DUP1 PUSH4 0x81812FC EQ PUSH2 0x2B8 JUMPI DUP1 PUSH4 0x95EA7B3 EQ PUSH2 0x2F0 JUMPI DUP1 PUSH4 0xB377E98 EQ PUSH2 0x312 JUMPI PUSH1 0x0 DUP1 REVERT JUMPDEST CALLDATASIZE PUSH2 0x25C JUMPI STOP JUMPDEST PUSH1 0x0 DUP1 REVERT JUMPDEST CALLVALUE DUP1 ISZERO PUSH2 0x26D JUMPI PUSH1 0x0 DUP1 REVERT JUMPDEST POP PUSH2 0x281 PUSH2 0x27C CALLDATASIZE PUSH1 0x4 PUSH2 0x211F JUMP JUMPDEST PUSH2 0x75C JUMP JUMPDEST PUSH1 0x40 MLOAD SWAP1 ISZERO ISZERO DUP2 MSTORE PUSH1 0x20 ADD JUMPDEST PUSH1 0x40 MLOAD DUP1 SWAP2 SUB SWAP1 RETURN JUMPDEST CALLVALUE DUP1 ISZERO PUSH2 0x2A2 JUMPI PUSH1 0x0 DUP1 REVERT JUMPDEST POP PUSH2 0x2AB PUSH2 0x787 JUMP JUMPDEST PUSH1 0x40 MLOAD PUSH2 0x28D SWAP2 SWAP1 PUSH2 0x218C JUMP JUMPDEST CALLVALUE DUP1 ISZERO PUSH2 0x2C4 JUMPI PUSH1 0x0 DUP1 REVERT JUMPDEST POP PUSH2 0x2D8 PUSH2 0x2D3 CALLDATASIZE PUSH1 0x4 PUSH2 0x219F JUMP JUMPDEST PUSH2 0x819 JUMP JUMPDEST PUSH1 0x40 MLOAD PUSH1 0x1 PUSH1 0x1 PUSH1 0xA0 SHL SUB SWAP1 SWAP2 AND DUP2 MSTORE PUSH1 0x20 ADD PUSH2 0x28D JUMP JUMPDEST CALLVALUE DUP1 ISZERO PUSH2 0x2FC JUMPI PUSH1 0x0 DUP1 REVERT JUMPDEST POP PUSH2 0x310 PUSH2 0x30B CALLDATASIZE PUSH1 0x4 PUSH2 0x21D4 JUMP JUMPDEST PUSH2 0x8B3 JUMP JUMPDEST STOP JUMPDEST CALLVALUE DUP1 ISZERO PUSH2 0x31E JUMPI PUSH1 0x0 DUP1 REVERT JUMPDEST POP PUSH1 0xD SLOAD PUSH2 0x281 SWAP1 PUSH3 0x10000 SWAP1 DIV PUSH1 0xFF AND DUP2 JUMP JUMPDEST CALLVALUE DUP1 ISZERO PUSH2 0x33E JUMPI PUSH1 0x0 DUP1 REVERT JUMPDEST POP PUSH1 0x8 SLOAD JUMPDEST PUSH1 0x40 MLOAD SWAP1 DUP2 MSTORE PUSH1 0x20 ADD PUSH2 0x28D JUMP JUMPDEST CALLVALUE DUP1 ISZERO PUSH2 0x35D JUMPI PUSH1 0x0 DUP1 REVERT JUMPDEST POP PUSH2 0x343 PUSH1 0x15 SLOAD DUP2 JUMP JUMPDEST CALLVALUE DUP1 ISZERO PUSH2 0x373 JUMPI PUSH1 0x0 DUP1 REVERT JUMPDEST POP PUSH2 0x343 PUSH2 0x382 CALLDATASIZE PUSH1 0x4 PUSH2 0x21FE JUMP JUMPDEST PUSH1 0x18 PUSH1 0x20 MSTORE PUSH1 0x0 SWAP1 DUP2 MSTORE PUSH1 0x40 SWAP1 KECCAK256 SLOAD DUP2 JUMP JUMPDEST CALLVALUE DUP1 ISZERO PUSH2 0x3A0 JUMPI PUSH1 0x0 DUP1 REVERT JUMPDEST POP PUSH2 0x310 PUSH2 0x3AF CALLDATASIZE PUSH1 0x4 PUSH2 0x2219 JUMP JUMPDEST PUSH2 0x9C8 JUMP JUMPDEST CALLVALUE DUP1 ISZERO PUSH2 0x3C0 JUMPI PUSH1 0x0 DUP1 REVERT JUMPDEST POP PUSH2 0x343 PUSH1 0x13 SLOAD DUP2 JUMP JUMPDEST CALLVALUE DUP1 ISZERO PUSH2 0x3D6 JUMPI PUSH1 0x0 DUP1 REVERT JUMPDEST POP PUSH2 0x343 PUSH2 0x3E5 CALLDATASIZE PUSH1 0x4 PUSH2 0x21D4 JUMP JUMPDEST PUSH2 0x9F9 JUMP JUMPDEST PUSH2 0x310 PUSH2 0x3F8 CALLDATASIZE PUSH1 0x4 PUSH2 0x21D4 JUMP JUMPDEST PUSH2 0xA8F JUMP JUMPDEST CALLVALUE DUP1 ISZERO PUSH2 0x409 JUMPI PUSH1 0x0 DUP1 REVERT JUMPDEST POP PUSH2 0x310 PUSH2 0x418 CALLDATASIZE PUSH1 0x4 PUSH2 0x2219 JUMP JUMPDEST PUSH2 0x10CD JUMP JUMPDEST CALLVALUE DUP1 ISZERO PUSH2 0x429 JUMPI PUSH1 0x0 DUP1 REVERT JUMPDEST POP PUSH2 0x343 PUSH1 0x11 SLOAD DUP2 JUMP JUMPDEST CALLVALUE DUP1 ISZERO PUSH2 0x43F JUMPI PUSH1 0x0 DUP1 REVERT JUMPDEST POP PUSH2 0x343 PUSH2 0x44E CALLDATASIZE PUSH1 0x4 PUSH2 0x219F JUMP JUMPDEST PUSH2 0x10E8 JUMP JUMPDEST CALLVALUE DUP1 ISZERO PUSH2 0x45F JUMPI PUSH1 0x0 DUP1 REVERT JUMPDEST POP PUSH2 0x310 PUSH2 0x46E CALLDATASIZE PUSH1 0x4 PUSH2 0x219F JUMP JUMPDEST PUSH2 0x117B JUMP JUMPDEST CALLVALUE DUP1 ISZERO PUSH2 0x47F JUMPI PUSH1 0x0 DUP1 REVERT JUMPDEST POP PUSH1 0xD SLOAD PUSH2 0x281 SWAP1 PUSH4 0x1000000 SWAP1 DIV PUSH1 0xFF AND DUP2 JUMP JUMPDEST CALLVALUE DUP1 ISZERO PUSH2 0x4A0 JUMPI PUSH1 0x0 DUP1 REVERT JUMPDEST POP PUSH2 0x310 PUSH2 0x4AF CALLDATASIZE PUSH1 0x4 PUSH2 0x22E1 JUMP JUMPDEST PUSH2 0x11AA JUMP JUMPDEST CALLVALUE DUP1 ISZERO PUSH2 0x4C0 JUMPI PUSH1 0x0 DUP1 REVERT JUMPDEST POP PUSH2 0x281 PUSH2 0x4CF CALLDATASIZE PUSH1 0x4 PUSH2 0x21FE JUMP JUMPDEST PUSH1 0x19 PUSH1 0x20 MSTORE PUSH1 0x0 SWAP1 DUP2 MSTORE PUSH1 0x40 SWAP1 KECCAK256 SLOAD PUSH1 0xFF AND DUP2 JUMP JUMPDEST CALLVALUE DUP1 ISZERO PUSH2 0x4F0 JUMPI PUSH1 0x0 DUP1 REVERT JUMPDEST POP PUSH2 0x2D8 PUSH2 0x4FF CALLDATASIZE PUSH1 0x4 PUSH2 0x219F JUMP JUMPDEST PUSH2 0x11E4 JUMP JUMPDEST CALLVALUE DUP1 ISZERO PUSH2 0x510 JUMPI PUSH1 0x0 DUP1 REVERT JUMPDEST POP PUSH2 0x2AB PUSH2 0x125B JUMP JUMPDEST CALLVALUE DUP1 ISZERO PUSH2 0x525 JUMPI PUSH1 0x0 DUP1 REVERT JUMPDEST POP PUSH2 0x343 PUSH2 0x534 CALLDATASIZE PUSH1 0x4 PUSH2 0x21FE JUMP JUMPDEST PUSH2 0x12E9 JUMP JUMPDEST CALLVALUE DUP1 ISZERO PUSH2 0x545 JUMPI PUSH1 0x0 DUP1 REVERT JUMPDEST POP PUSH2 0x310 PUSH2 0x1370 JUMP JUMPDEST CALLVALUE DUP1 ISZERO PUSH2 0x55A JUMPI PUSH1 0x0 DUP1 REVERT JUMPDEST POP PUSH2 0x343 PUSH1 0x14 SLOAD DUP2 JUMP JUMPDEST CALLVALUE DUP1 ISZERO PUSH2 0x570 JUMPI PUSH1 0x0 DUP1 REVERT JUMPDEST POP PUSH1 0xD SLOAD PUSH2 0x281 SWAP1 PUSH2 0x100 SWAP1 DIV PUSH1 0xFF AND DUP2 JUMP JUMPDEST CALLVALUE DUP1 ISZERO PUSH2 0x58F JUMPI PUSH1 0x0 DUP1 REVERT JUMPDEST POP PUSH1 0xA SLOAD PUSH1 0x1 PUSH1 0x1 PUSH1 0xA0 SHL SUB AND PUSH2 0x2D8 JUMP JUMPDEST CALLVALUE DUP1 ISZERO PUSH2 0x5AD JUMPI PUSH1 0x0 DUP1 REVERT JUMPDEST POP PUSH2 0x2AB PUSH2 0x13A6 JUMP JUMPDEST CALLVALUE DUP1 ISZERO PUSH2 0x5C2 JUMPI PUSH1 0x0 DUP1 REVERT JUMPDEST POP PUSH2 0x310 PUSH2 0x13B5 JUMP JUMPDEST CALLVALUE DUP1 ISZERO PUSH2 0x5D7 JUMPI PUSH1 0x0 DUP1 REVERT JUMPDEST POP PUSH2 0x310 PUSH2 0x5E6 CALLDATASIZE PUSH1 0x4 PUSH2 0x232A JUMP JUMPDEST PUSH2 0x13FE JUMP JUMPDEST CALLVALUE DUP1 ISZERO PUSH2 0x5F7 JUMPI PUSH1 0x0 DUP1 REVERT JUMPDEST POP PUSH1 0xD SLOAD PUSH2 0x281 SWAP1 PUSH1 0xFF AND DUP2 JUMP JUMPDEST CALLVALUE DUP1 ISZERO PUSH2 0x611 JUMPI PUSH1 0x0 DUP1 REVERT JUMPDEST POP PUSH2 0x310 PUSH2 0x620 CALLDATASIZE PUSH1 0x4 PUSH2 0x2366 JUMP JUMPDEST PUSH2 0x1409 JUMP JUMPDEST CALLVALUE DUP1 ISZERO PUSH2 0x631 JUMPI PUSH1 0x0 DUP1 REVERT JUMPDEST POP PUSH2 0x2AB PUSH2 0x143B JUMP JUMPDEST CALLVALUE DUP1 ISZERO PUSH2 0x646 JUMPI PUSH1 0x0 DUP1 REVERT JUMPDEST POP PUSH2 0x2AB PUSH2 0x655 CALLDATASIZE PUSH1 0x4 PUSH2 0x219F JUMP JUMPDEST PUSH2 0x1448 JUMP JUMPDEST CALLVALUE DUP1 ISZERO PUSH2 0x666 JUMPI PUSH1 0x0 DUP1 REVERT JUMPDEST POP PUSH2 0x343 PUSH1 0x12 SLOAD DUP2 JUMP JUMPDEST CALLVALUE DUP1 ISZERO PUSH2 0x67C JUMPI PUSH1 0x0 DUP1 REVERT JUMPDEST POP PUSH2 0x343 PUSH1 0x10 SLOAD DUP2 JUMP JUMPDEST CALLVALUE DUP1 ISZERO PUSH2 0x692 JUMPI PUSH1 0x0 DUP1 REVERT JUMPDEST POP PUSH2 0x343 PUSH1 0x17 SLOAD DUP2 JUMP JUMPDEST CALLVALUE DUP1 ISZERO PUSH2 0x6A8 JUMPI PUSH1 0x0 DUP1 REVERT JUMPDEST POP PUSH2 0x343 PUSH1 0xE SLOAD DUP2 JUMP JUMPDEST CALLVALUE DUP1 ISZERO PUSH2 0x6BE JUMPI PUSH1 0x0 DUP1 REVERT JUMPDEST POP PUSH2 0x281 PUSH2 0x6CD CALLDATASIZE PUSH1 0x4 PUSH2 0x23E2 JUMP JUMPDEST PUSH1 0x1 PUSH1 0x1 PUSH1 0xA0 SHL SUB SWAP2 DUP3 AND PUSH1 0x0 SWAP1 DUP2 MSTORE PUSH1 0x5 PUSH1 0x20 SWAP1 DUP2 MSTORE PUSH1 0x40 DUP1 DUP4 KECCAK256 SWAP4 SWAP1 SWAP5 AND DUP3 MSTORE SWAP2 SWAP1 SWAP2 MSTORE KECCAK256 SLOAD PUSH1 0xFF AND SWAP1 JUMP JUMPDEST CALLVALUE DUP1 ISZERO PUSH2 0x707 JUMPI PUSH1 0x0 DUP1 REVERT JUMPDEST POP PUSH2 0x310 PUSH2 0x1523 JUMP JUMPDEST CALLVALUE DUP1 ISZERO PUSH2 0x71C JUMPI PUSH1 0x0 DUP1 REVERT JUMPDEST POP PUSH2 0x310 PUSH2 0x72B CALLDATASIZE PUSH1 0x4 PUSH2 0x21FE JUMP JUMPDEST PUSH2 0x156A JUMP JUMPDEST CALLVALUE DUP1 ISZERO PUSH2 0x73C JUMPI PUSH1 0x0 DUP1 REVERT JUMPDEST POP PUSH2 0x343 PUSH1 0x16 SLOAD DUP2 JUMP JUMPDEST CALLVALUE DUP1 ISZERO PUSH2 0x752 JUMPI PUSH1 0x0 DUP1 REVERT JUMPDEST POP PUSH2 0x343 PUSH1 0xF SLOAD DUP2 JUMP JUMPDEST PUSH1 0x0 PUSH1 0x1 PUSH1 0x1 PUSH1 0xE0 SHL SUB NOT DUP3 AND PUSH4 0x780E9D63 PUSH1 0xE0 SHL EQ DUP1 PUSH2 0x781 JUMPI POP PUSH2 0x781 DUP3 PUSH2 0x1605 JUMP JUMPDEST SWAP3 SWAP2 POP POP JUMP JUMPDEST PUSH1 0x60 PUSH1 0x0 DUP1 SLOAD PUSH2 0x796 SWAP1 PUSH2 0x2415 JUMP JUMPDEST DUP1 PUSH1 0x1F ADD PUSH1 0x20 DUP1 SWAP2 DIV MUL PUSH1 0x20 ADD PUSH1 0x40 MLOAD SWAP1 DUP2 ADD PUSH1 0x40 MSTORE DUP1 SWAP3 SWAP2 SWAP1 DUP2 DUP2 MSTORE PUSH1 0x20 ADD DUP3 DUP1 SLOAD PUSH2 0x7C2 SWAP1 PUSH2 0x2415 JUMP JUMPDEST DUP1 ISZERO PUSH2 0x80F JUMPI DUP1 PUSH1 0x1F LT PUSH2 0x7E4 JUMPI PUSH2 0x100 DUP1 DUP4 SLOAD DIV MUL DUP4 MSTORE SWAP2 PUSH1 0x20 ADD SWAP2 PUSH2 0x80F JUMP JUMPDEST DUP3 ADD SWAP2 SWAP1 PUSH1 0x0 MSTORE PUSH1 0x20 PUSH1 0x0 KECCAK256 SWAP1 JUMPDEST DUP2 SLOAD DUP2 MSTORE SWAP1 PUSH1 0x1 ADD SWAP1 PUSH1 0x20 ADD DUP1 DUP4 GT PUSH2 0x7F2 JUMPI DUP3 SWAP1 SUB PUSH1 0x1F AND DUP3 ADD SWAP2 JUMPDEST POP POP POP POP POP SWAP1 POP SWAP1 JUMP JUMPDEST PUSH1 0x0 DUP2 DUP2 MSTORE PUSH1 0x2 PUSH1 0x20 MSTORE PUSH1 0x40 DUP2 KECCAK256 SLOAD PUSH1 0x1 PUSH1 0x1 PUSH1 0xA0 SHL SUB AND PUSH2 0x897 JUMPI PUSH1 0x40 MLOAD PUSH3 0x461BCD PUSH1 0xE5 SHL DUP2 MSTORE PUSH1 0x20 PUSH1 0x4 DUP3 ADD MSTORE PUSH1 0x2C PUSH1 0x24 DUP3 ADD MSTORE PUSH32 0x4552433732313A20617070726F76656420717565727920666F72206E6F6E6578 PUSH1 0x44 DUP3 ADD MSTORE PUSH12 0x34B9BA32B73A103A37B5B2B7 PUSH1 0xA1 SHL PUSH1 0x64 DUP3 ADD MSTORE PUSH1 0x84 ADD JUMPDEST PUSH1 0x40 MLOAD DUP1 SWAP2 SUB SWAP1 REVERT JUMPDEST POP PUSH1 0x0 SWAP1 DUP2 MSTORE PUSH1 0x4 PUSH1 0x20 MSTORE PUSH1 0x40 SWAP1 KECCAK256 SLOAD PUSH1 0x1 PUSH1 0x1 PUSH1 0xA0 SHL SUB AND SWAP1 JUMP JUMPDEST PUSH1 0x0 PUSH2 0x8BE DUP3 PUSH2 0x11E4 JUMP JUMPDEST SWAP1 POP DUP1 PUSH1 0x1 PUSH1 0x1 PUSH1 0xA0 SHL SUB AND DUP4 PUSH1 0x1 PUSH1 0x1 PUSH1 0xA0 SHL SUB AND SUB PUSH2 0x92B JUMPI PUSH1 0x40 MLOAD PUSH3 0x461BCD PUSH1 0xE5 SHL DUP2 MSTORE PUSH1 0x20 PUSH1 0x4 DUP3 ADD MSTORE PUSH1 0x21 PUSH1 0x24 DUP3 ADD MSTORE PUSH32 0x4552433732313A20617070726F76616C20746F2063757272656E74206F776E65 PUSH1 0x44 DUP3 ADD MSTORE PUSH1 0x39 PUSH1 0xF9 SHL PUSH1 0x64 DUP3 ADD MSTORE PUSH1 0x84 ADD PUSH2 0x88E JUMP JUMPDEST CALLER PUSH1 0x1 PUSH1 0x1 PUSH1 0xA0 SHL SUB DUP3 AND EQ DUP1 PUSH2 0x947 JUMPI POP PUSH2 0x947 DUP2 CALLER PUSH2 0x6CD JUMP JUMPDEST PUSH2 0x9B9 JUMPI PUSH1 0x40 MLOAD PUSH3 0x461BCD PUSH1 0xE5 SHL DUP2 MSTORE PUSH1 0x20 PUSH1 0x4 DUP3 ADD MSTORE PUSH1 0x38 PUSH1 0x24 DUP3 ADD MSTORE PUSH32 0x4552433732313A20617070726F76652063616C6C6572206973206E6F74206F77 PUSH1 0x44 DUP3 ADD MSTORE PUSH32 0x6E6572206E6F7220617070726F76656420666F7220616C6C0000000000000000 PUSH1 0x64 DUP3 ADD MSTORE PUSH1 0x84 ADD PUSH2 0x88E JUMP JUMPDEST PUSH2 0x9C3 DUP4 DUP4 PUSH2 0x1655 JUMP JUMPDEST POP POP POP JUMP JUMPDEST PUSH2 0x9D2 CALLER DUP3 PUSH2 0x16C3 JUMP JUMPDEST PUSH2 0x9EE JUMPI PUSH1 0x40 MLOAD PUSH3 0x461BCD PUSH1 0xE5 SHL DUP2 MSTORE PUSH1 0x4 ADD PUSH2 0x88E SWAP1 PUSH2 0x244F JUMP JUMPDEST PUSH2 0x9C3 DUP4 DUP4 DUP4 PUSH2 0x17BA JUMP JUMPDEST PUSH1 0x0 PUSH2 0xA04 DUP4 PUSH2 0x12E9 JUMP JUMPDEST DUP3 LT PUSH2 0xA66 JUMPI PUSH1 0x40 MLOAD PUSH3 0x461BCD PUSH1 0xE5 SHL DUP2 MSTORE PUSH1 0x20 PUSH1 0x4 DUP3 ADD MSTORE PUSH1 0x2B PUSH1 0x24 DUP3 ADD MSTORE PUSH32 0x455243373231456E756D657261626C653A206F776E657220696E646578206F75 PUSH1 0x44 DUP3 ADD MSTORE PUSH11 0x74206F6620626F756E6473 PUSH1 0xA8 SHL PUSH1 0x64 DUP3 ADD MSTORE PUSH1 0x84 ADD PUSH2 0x88E JUMP JUMPDEST POP PUSH1 0x1 PUSH1 0x1 PUSH1 0xA0 SHL SUB SWAP2 SWAP1 SWAP2 AND PUSH1 0x0 SWAP1 DUP2 MSTORE PUSH1 0x6 PUSH1 0x20 SWAP1 DUP2 MSTORE PUSH1 0x40 DUP1 DUP4 KECCAK256 SWAP4 DUP4 MSTORE SWAP3 SWAP1 MSTORE KECCAK256 SLOAD SWAP1 JUMP JUMPDEST PUSH1 0xD SLOAD PUSH1 0x0 SWAP1 PUSH1 0xFF AND DUP1 PUSH2 0xAAA JUMPI POP PUSH1 0xD SLOAD PUSH2 0x100 SWAP1 DIV PUSH1 0xFF AND JUMPDEST SWAP1 POP DUP1 PUSH2 0xAEB JUMPI PUSH1 0x40 MLOAD PUSH3 0x461BCD PUSH1 0xE5 SHL DUP2 MSTORE PUSH1 0x20 PUSH1 0x4 DUP3 ADD MSTORE PUSH1 0xF PUSH1 0x24 DUP3 ADD MSTORE PUSH15 0x29B0B6329036BAB9BA1031329027A7 PUSH1 0x89 SHL PUSH1 0x44 DUP3 ADD MSTORE PUSH1 0x64 ADD PUSH2 0x88E JUMP JUMPDEST PUSH1 0x0 PUSH2 0xAF6 PUSH1 0x8 SLOAD SWAP1 JUMP JUMPDEST SWAP1 POP PUSH2 0xB0A PUSH1 0xA SLOAD PUSH1 0x1 PUSH1 0x1 PUSH1 0xA0 SHL SUB AND SWAP1 JUMP JUMPDEST PUSH1 0x1 PUSH1 0x1 PUSH1 0xA0 SHL SUB AND CALLER PUSH1 0x1 PUSH1 0x1 PUSH1 0xA0 SHL SUB AND EQ PUSH2 0xEF8 JUMPI PUSH1 0xD SLOAD PUSH1 0xFF AND ISZERO PUSH2 0xD36 JUMPI PUSH1 0xD SLOAD PUSH1 0xFF AND PUSH2 0xB74 JUMPI PUSH1 0x40 MLOAD PUSH3 0x461BCD PUSH1 0xE5 SHL DUP2 MSTORE PUSH1 0x20 PUSH1 0x4 DUP3 ADD MSTORE PUSH1 0x12 PUSH1 0x24 DUP3 ADD MSTORE PUSH18 0x283932B9B0B6329036BAB9BA1031329027A7 PUSH1 0x71 SHL PUSH1 0x44 DUP3 ADD MSTORE PUSH1 0x64 ADD PUSH2 0x88E JUMP JUMPDEST PUSH1 0x0 DUP4 GT PUSH2 0xBC4 JUMPI PUSH1 0x40 MLOAD PUSH3 0x461BCD PUSH1 0xE5 SHL DUP2 MSTORE PUSH1 0x20 PUSH1 0x4 DUP3 ADD DUP2 SWAP1 MSTORE PUSH1 0x24 DUP3 ADD MSTORE PUSH32 0x4D696E742061626D6F756E74206D757374206265206D6F7265207468616E2030 PUSH1 0x44 DUP3 ADD MSTORE PUSH1 0x64 ADD PUSH2 0x88E JUMP JUMPDEST CALLER PUSH1 0x0 SWAP1 DUP2 MSTORE PUSH1 0x19 PUSH1 0x20 MSTORE PUSH1 0x40 SWAP1 KECCAK256 SLOAD PUSH1 0xFF AND ISZERO ISZERO PUSH1 0x1 EQ PUSH2 0xC28 JUMPI PUSH1 0x40 MLOAD PUSH3 0x461BCD PUSH1 0xE5 SHL DUP2 MSTORE PUSH1 0x20 PUSH1 0x4 DUP3 ADD MSTORE PUSH1 0x17 PUSH1 0x24 DUP3 ADD MSTORE PUSH32 0x596F75206172656E27742077686974656C697374656421000000000000000000 PUSH1 0x44 DUP3 ADD MSTORE PUSH1 0x64 ADD PUSH2 0x88E JUMP JUMPDEST PUSH1 0xE SLOAD PUSH2 0xC35 DUP5 DUP4 PUSH2 0x24B6 JUMP JUMPDEST GT ISZERO PUSH2 0xC53 JUMPI PUSH1 0x40 MLOAD PUSH3 0x461BCD PUSH1 0xE5 SHL DUP2 MSTORE PUSH1 0x4 ADD PUSH2 0x88E SWAP1 PUSH2 0x24C9 JUMP JUMPDEST PUSH1 0x12 SLOAD CALLER PUSH1 0x0 SWAP1 DUP2 MSTORE PUSH1 0x18 PUSH1 0x20 MSTORE PUSH1 0x40 SWAP1 KECCAK256 SLOAD PUSH2 0xC71 SWAP1 DUP6 SWAP1 PUSH2 0x24B6 JUMP JUMPDEST GT ISZERO PUSH2 0xCD4 JUMPI PUSH1 0x40 MLOAD PUSH3 0x461BCD PUSH1 0xE5 SHL DUP2 MSTORE PUSH1 0x20 PUSH1 0x4 DUP3 ADD MSTORE PUSH1 0x2C PUSH1 0x24 DUP3 ADD MSTORE PUSH32 0x507572636861736520776F756C6420657863656564206D617820746F6B656E73 PUSH1 0x44 DUP3 ADD MSTORE PUSH12 0x20666F722070726573616C65 PUSH1 0xA0 SHL PUSH1 0x64 DUP3 ADD MSTORE PUSH1 0x84 ADD PUSH2 0x88E JUMP JUMPDEST DUP3 PUSH1 0x10 SLOAD PUSH2 0xCE2 SWAP2 SWAP1 PUSH2 0x2511 JUMP JUMPDEST CALLVALUE LT ISZERO PUSH2 0xD31 JUMPI PUSH1 0x40 MLOAD PUSH3 0x461BCD PUSH1 0xE5 SHL DUP2 MSTORE PUSH1 0x20 PUSH1 0x4 DUP3 ADD MSTORE PUSH1 0x1F PUSH1 0x24 DUP3 ADD MSTORE PUSH32 0x45746865722076616C75652073656E74206973206E6F7420636F727265637400 PUSH1 0x44 DUP3 ADD MSTORE PUSH1 0x64 ADD PUSH2 0x88E JUMP JUMPDEST PUSH2 0xEF8 JUMP JUMPDEST PUSH1 0xD SLOAD PUSH2 0x100 SWAP1 DIV PUSH1 0xFF AND ISZERO PUSH2 0xEF8 JUMPI PUSH1 0xD SLOAD PUSH2 0x100 SWAP1 DIV PUSH1 0xFF AND PUSH2 0xD95 JUMPI PUSH1 0x40 MLOAD PUSH3 0x461BCD PUSH1 0xE5 SHL DUP2 MSTORE PUSH1 0x20 PUSH1 0x4 DUP3 ADD MSTORE PUSH1 0x15 PUSH1 0x24 DUP3 ADD MSTORE PUSH21 0x283AB13634B1B9B0B6329036BAB9BA1031329027A7 PUSH1 0x59 SHL PUSH1 0x44 DUP3 ADD MSTORE PUSH1 0x64 ADD PUSH2 0x88E JUMP JUMPDEST PUSH1 0x0 DUP4 GT PUSH2 0xDE5 JUMPI PUSH1 0x40 MLOAD PUSH3 0x461BCD PUSH1 0xE5 SHL DUP2 MSTORE PUSH1 0x20 PUSH1 0x4 DUP3 ADD DUP2 SWAP1 MSTORE PUSH1 0x24 DUP3 ADD MSTORE PUSH32 0x4D696E742061626D6F756E74206D757374206265206D6F7265207468616E2030 PUSH1 0x44 DUP3 ADD MSTORE PUSH1 0x64 ADD PUSH2 0x88E JUMP JUMPDEST PUSH1 0xF SLOAD PUSH1 0xE SLOAD PUSH2 0xDF5 SWAP2 SWAP1 PUSH2 0x2528 JUMP JUMPDEST PUSH2 0xDFF DUP5 DUP4 PUSH2 0x24B6 JUMP JUMPDEST GT ISZERO PUSH2 0xE1D JUMPI PUSH1 0x40 MLOAD PUSH3 0x461BCD PUSH1 0xE5 SHL DUP2 MSTORE PUSH1 0x4 ADD PUSH2 0x88E SWAP1 PUSH2 0x24C9 JUMP JUMPDEST PUSH1 0x13 SLOAD CALLER PUSH1 0x0 SWAP1 DUP2 MSTORE PUSH1 0x18 PUSH1 0x20 MSTORE PUSH1 0x40 SWAP1 KECCAK256 SLOAD PUSH2 0xE3B SWAP1 DUP6 SWAP1 PUSH2 0x24B6 JUMP JUMPDEST GT ISZERO PUSH2 0xE9B JUMPI PUSH1 0x40 MLOAD PUSH3 0x461BCD PUSH1 0xE5 SHL DUP2 MSTORE PUSH1 0x20 PUSH1 0x4 DUP3 ADD MSTORE PUSH1 0x29 PUSH1 0x24 DUP3 ADD MSTORE PUSH32 0x507572636861736520776F756C6420657863656564206D617820746F6B656E73 PUSH1 0x44 DUP3 ADD MSTORE PUSH9 0x20666F722073616C65 PUSH1 0xB8 SHL PUSH1 0x64 DUP3 ADD MSTORE PUSH1 0x84 ADD PUSH2 0x88E JUMP JUMPDEST DUP3 PUSH1 0x11 SLOAD PUSH2 0xEA9 SWAP2 SWAP1 PUSH2 0x2511 JUMP JUMPDEST CALLVALUE LT ISZERO PUSH2 0xEF8 JUMPI PUSH1 0x40 MLOAD PUSH3 0x461BCD PUSH1 0xE5 SHL DUP2 MSTORE PUSH1 0x20 PUSH1 0x4 DUP3 ADD MSTORE PUSH1 0x1F PUSH1 0x24 DUP3 ADD MSTORE PUSH32 0x45746865722076616C75652073656E74206973206E6F7420636F727265637400 PUSH1 0x44 DUP3 ADD MSTORE PUSH1 0x64 ADD PUSH2 0x88E JUMP JUMPDEST PUSH1 0x1 JUMPDEST DUP4 DUP2 GT PUSH2 0xF27 JUMPI PUSH2 0xF15 DUP6 PUSH2 0xF10 DUP4 DUP6 PUSH2 0x24B6 JUMP JUMPDEST PUSH2 0x1961 JUMP JUMPDEST DUP1 PUSH2 0xF1F DUP2 PUSH2 0x253B JUMP JUMPDEST SWAP2 POP POP PUSH2 0xEFB JUMP JUMPDEST POP CALLER PUSH1 0x0 SWAP1 DUP2 MSTORE PUSH1 0x18 PUSH1 0x20 MSTORE PUSH1 0x40 DUP2 KECCAK256 DUP1 SLOAD DUP6 SWAP3 SWAP1 PUSH2 0xF47 SWAP1 DUP5 SWAP1 PUSH2 0x24B6 JUMP JUMPDEST SWAP1 SWAP2 SSTORE POP POP PUSH1 0xD SLOAD PUSH3 0x10000 SWAP1 DIV PUSH1 0xFF AND DUP1 ISZERO PUSH2 0xF66 JUMPI POP PUSH1 0x0 PUSH1 0x14 SLOAD GT JUMPDEST DUP1 ISZERO PUSH2 0xF7D JUMPI POP PUSH1 0xA SLOAD PUSH1 0x1 PUSH1 0x1 PUSH1 0xA0 SHL SUB AND CALLER EQ ISZERO JUMPDEST ISZERO PUSH2 0x10C7 JUMPI PUSH1 0x0 PUSH2 0xF8C PUSH2 0x197B JUMP JUMPDEST SWAP1 POP PUSH1 0x1 DUP2 LT DUP1 ISZERO PUSH2 0xF9F JUMPI POP PUSH1 0x15 SLOAD SELFBALANCE GT JUMPDEST ISZERO PUSH2 0xFFB JUMPI PUSH1 0x15 SLOAD PUSH1 0x40 MLOAD PUSH1 0x1 PUSH1 0x1 PUSH1 0xA0 SHL SUB DUP8 AND SWAP2 DUP1 ISZERO PUSH2 0x8FC MUL SWAP2 PUSH1 0x0 DUP2 DUP2 DUP2 DUP6 DUP9 DUP9 CALL SWAP4 POP POP POP POP ISZERO DUP1 ISZERO PUSH2 0xFDB JUMPI RETURNDATASIZE PUSH1 0x0 DUP1 RETURNDATACOPY RETURNDATASIZE PUSH1 0x0 REVERT JUMPDEST POP PUSH1 0x15 SLOAD PUSH1 0x14 PUSH1 0x0 DUP3 DUP3 SLOAD PUSH2 0xFF0 SWAP2 SWAP1 PUSH2 0x2528 JUMP JUMPDEST SWAP1 SWAP2 SSTORE POP PUSH2 0x10C5 SWAP1 POP JUMP JUMPDEST PUSH1 0x4 DUP2 LT DUP1 ISZERO PUSH2 0x100C JUMPI POP PUSH1 0x16 SLOAD SELFBALANCE GT JUMPDEST ISZERO PUSH2 0x105D JUMPI PUSH1 0x16 SLOAD PUSH1 0x40 MLOAD PUSH1 0x1 PUSH1 0x1 PUSH1 0xA0 SHL SUB DUP8 AND SWAP2 DUP1 ISZERO PUSH2 0x8FC MUL SWAP2 PUSH1 0x0 DUP2 DUP2 DUP2 DUP6 DUP9 DUP9 CALL SWAP4 POP POP POP POP ISZERO DUP1 ISZERO PUSH2 0x1048 JUMPI RETURNDATASIZE PUSH1 0x0 DUP1 RETURNDATACOPY RETURNDATASIZE PUSH1 0x0 REVERT JUMPDEST POP PUSH1 0x16 SLOAD PUSH1 0x14 PUSH1 0x0 DUP3 DUP3 SLOAD PUSH2 0xFF0 SWAP2 SWAP1 PUSH2 0x2528 JUMP JUMPDEST PUSH1 0x50 DUP2 LT DUP1 ISZERO PUSH2 0x106E JUMPI POP PUSH1 0x17 SLOAD SELFBALANCE GT JUMPDEST ISZERO PUSH2 0x10C5 JUMPI PUSH1 0x17 SLOAD PUSH1 0x40 MLOAD PUSH1 0x1 PUSH1 0x1 PUSH1 0xA0 SHL SUB DUP8 AND SWAP2 DUP1 ISZERO PUSH2 0x8FC MUL SWAP2 PUSH1 0x0 DUP2 DUP2 DUP2 DUP6 DUP9 DUP9 CALL SWAP4 POP POP POP POP ISZERO DUP1 ISZERO PUSH2 0x10AA JUMPI RETURNDATASIZE PUSH1 0x0 DUP1 RETURNDATACOPY RETURNDATASIZE PUSH1 0x0 REVERT JUMPDEST POP PUSH1 0x17 SLOAD PUSH1 0x14 PUSH1 0x0 DUP3 DUP3 SLOAD PUSH2 0x10BF SWAP2 SWAP1 PUSH2 0x2528 JUMP JUMPDEST SWAP1 SWAP2 SSTORE POP POP JUMPDEST POP JUMPDEST POP POP POP POP JUMP JUMPDEST PUSH2 0x9C3 DUP4 DUP4 DUP4 PUSH1 0x40 MLOAD DUP1 PUSH1 0x20 ADD PUSH1 0x40 MSTORE DUP1 PUSH1 0x0 DUP2 MSTORE POP PUSH2 0x1409 JUMP JUMPDEST PUSH1 0x0 PUSH2 0x10F3 PUSH1 0x8 SLOAD SWAP1 JUMP JUMPDEST DUP3 LT PUSH2 0x1156 JUMPI PUSH1 0x40 MLOAD PUSH3 0x461BCD PUSH1 0xE5 SHL DUP2 MSTORE PUSH1 0x20 PUSH1 0x4 DUP3 ADD MSTORE PUSH1 0x2C PUSH1 0x24 DUP3 ADD MSTORE PUSH32 0x455243373231456E756D657261626C653A20676C6F62616C20696E646578206F PUSH1 0x44 DUP3 ADD MSTORE PUSH12 0x7574206F6620626F756E6473 PUSH1 0xA0 SHL PUSH1 0x64 DUP3 ADD MSTORE PUSH1 0x84 ADD PUSH2 0x88E JUMP JUMPDEST PUSH1 0x8 DUP3 DUP2 SLOAD DUP2 LT PUSH2 0x1169 JUMPI PUSH2 0x1169 PUSH2 0x2554 JUMP JUMPDEST SWAP1 PUSH1 0x0 MSTORE PUSH1 0x20 PUSH1 0x0 KECCAK256 ADD SLOAD SWAP1 POP SWAP2 SWAP1 POP JUMP JUMPDEST PUSH1 0xA SLOAD PUSH1 0x1 PUSH1 0x1 PUSH1 0xA0 SHL SUB AND CALLER EQ PUSH2 0x11A5 JUMPI PUSH1 0x40 MLOAD PUSH3 0x461BCD PUSH1 0xE5 SHL DUP2 MSTORE PUSH1 0x4 ADD PUSH2 0x88E SWAP1 PUSH2 0x256A JUMP JUMPDEST PUSH1 0x14 SSTORE JUMP JUMPDEST PUSH1 0xA SLOAD PUSH1 0x1 PUSH1 0x1 PUSH1 0xA0 SHL SUB AND CALLER EQ PUSH2 0x11D4 JUMPI PUSH1 0x40 MLOAD PUSH3 0x461BCD PUSH1 0xE5 SHL DUP2 MSTORE PUSH1 0x4 ADD PUSH2 0x88E SWAP1 PUSH2 0x256A JUMP JUMPDEST PUSH1 0xB PUSH2 0x11E0 DUP3 DUP3 PUSH2 0x25ED JUMP JUMPDEST POP POP JUMP JUMPDEST PUSH1 0x0 DUP2 DUP2 MSTORE PUSH1 0x2 PUSH1 0x20 MSTORE PUSH1 0x40 DUP2 KECCAK256 SLOAD PUSH1 0x1 PUSH1 0x1 PUSH1 0xA0 SHL SUB AND DUP1 PUSH2 0x781 JUMPI PUSH1 0x40 MLOAD PUSH3 0x461BCD PUSH1 0xE5 SHL DUP2 MSTORE PUSH1 0x20 PUSH1 0x4 DUP3 ADD MSTORE PUSH1 0x29 PUSH1 0x24 DUP3 ADD MSTORE PUSH32 0x4552433732313A206F776E657220717565727920666F72206E6F6E6578697374 PUSH1 0x44 DUP3 ADD MSTORE PUSH9 0x32B73A103A37B5B2B7 PUSH1 0xB9 SHL PUSH1 0x64 DUP3 ADD MSTORE PUSH1 0x84 ADD PUSH2 0x88E JUMP JUMPDEST PUSH1 0xB DUP1 SLOAD PUSH2 0x1268 SWAP1 PUSH2 0x2415 JUMP JUMPDEST DUP1 PUSH1 0x1F ADD PUSH1 0x20 DUP1 SWAP2 DIV MUL PUSH1 0x20 ADD PUSH1 0x40 MLOAD SWAP1 DUP2 ADD PUSH1 0x40 MSTORE DUP1 SWAP3 SWAP2 SWAP1 DUP2 DUP2 MSTORE PUSH1 0x20 ADD DUP3 DUP1 SLOAD PUSH2 0x1294 SWAP1 PUSH2 0x2415 JUMP JUMPDEST DUP1 ISZERO PUSH2 0x12E1 JUMPI DUP1 PUSH1 0x1F LT PUSH2 0x12B6 JUMPI PUSH2 0x100 DUP1 DUP4 SLOAD DIV MUL DUP4 MSTORE SWAP2 PUSH1 0x20 ADD SWAP2 PUSH2 0x12E1 JUMP JUMPDEST DUP3 ADD SWAP2 SWAP1 PUSH1 0x0 MSTORE PUSH1 0x20 PUSH1 0x0 KECCAK256 SWAP1 JUMPDEST DUP2 SLOAD DUP2 MSTORE SWAP1 PUSH1 0x1 ADD SWAP1 PUSH1 0x20 ADD DUP1 DUP4 GT PUSH2 0x12C4 JUMPI DUP3 SWAP1 SUB PUSH1 0x1F AND DUP3 ADD SWAP2 JUMPDEST POP POP POP POP POP DUP2 JUMP JUMPDEST PUSH1 0x0 PUSH1 0x1 PUSH1 0x1 PUSH1 0xA0 SHL SUB DUP3 AND PUSH2 0x1354 JUMPI PUSH1 0x40 MLOAD PUSH3 0x461BCD PUSH1 0xE5 SHL DUP2 MSTORE PUSH1 0x20 PUSH1 0x4 DUP3 ADD MSTORE PUSH1 0x2A PUSH1 0x24 DUP3 ADD MSTORE PUSH32 0x4552433732313A2062616C616E636520717565727920666F7220746865207A65 PUSH1 0x44 DUP3 ADD MSTORE PUSH10 0x726F2061646472657373 PUSH1 0xB0 SHL PUSH1 0x64 DUP3 ADD MSTORE PUSH1 0x84 ADD PUSH2 0x88E JUMP JUMPDEST POP PUSH1 0x1 PUSH1 0x1 PUSH1 0xA0 SHL SUB AND PUSH1 0x0 SWAP1 DUP2 MSTORE PUSH1 0x3 PUSH1 0x20 MSTORE PUSH1 0x40 SWAP1 KECCAK256 SLOAD SWAP1 JUMP JUMPDEST PUSH1 0xA SLOAD PUSH1 0x1 PUSH1 0x1 PUSH1 0xA0 SHL SUB AND CALLER EQ PUSH2 0x139A JUMPI PUSH1 0x40 MLOAD PUSH3 0x461BCD PUSH1 0xE5 SHL DUP2 MSTORE PUSH1 0x4 ADD PUSH2 0x88E SWAP1 PUSH2 0x256A JUMP JUMPDEST PUSH2 0x13A4 PUSH1 0x0 PUSH2 0x19DC JUMP JUMPDEST JUMP JUMPDEST PUSH1 0x60 PUSH1 0x1 DUP1 SLOAD PUSH2 0x796 SWAP1 PUSH2 0x2415 JUMP JUMPDEST PUSH1 0xA SLOAD PUSH1 0x1 PUSH1 0x1 PUSH1 0xA0 SHL SUB AND CALLER EQ PUSH2 0x13DF JUMPI PUSH1 0x40 MLOAD PUSH3 0x461BCD PUSH1 0xE5 SHL DUP2 MSTORE PUSH1 0x4 ADD PUSH2 0x88E SWAP1 PUSH2 0x256A JUMP JUMPDEST PUSH1 0xD DUP1 SLOAD PUSH3 0xFF0000 NOT DUP2 AND PUSH3 0x10000 SWAP2 DUP3 SWAP1 DIV PUSH1 0xFF AND ISZERO SWAP1 SWAP2 MUL OR SWAP1 SSTORE JUMP JUMPDEST PUSH2 0x11E0 CALLER DUP4 DUP4 PUSH2 0x1A2E JUMP JUMPDEST PUSH2 0x1413 CALLER DUP4 PUSH2 0x16C3 JUMP JUMPDEST PUSH2 0x142F JUMPI PUSH1 0x40 MLOAD PUSH3 0x461BCD PUSH1 0xE5 SHL DUP2 MSTORE PUSH1 0x4 ADD PUSH2 0x88E SWAP1 PUSH2 0x244F JUMP JUMPDEST PUSH2 0x10C7 DUP5 DUP5 DUP5 DUP5 PUSH2 0x1AFC JUMP JUMPDEST PUSH1 0xC DUP1 SLOAD PUSH2 0x1268 SWAP1 PUSH2 0x2415 JUMP JUMPDEST PUSH1 0x0 DUP2 DUP2 MSTORE PUSH1 0x2 PUSH1 0x20 MSTORE PUSH1 0x40 SWAP1 KECCAK256 SLOAD PUSH1 0x60 SWAP1 PUSH1 0x1 PUSH1 0x1 PUSH1 0xA0 SHL SUB AND PUSH2 0x14C7 JUMPI PUSH1 0x40 MLOAD PUSH3 0x461BCD PUSH1 0xE5 SHL DUP2 MSTORE PUSH1 0x20 PUSH1 0x4 DUP3 ADD MSTORE PUSH1 0x2F PUSH1 0x24 DUP3 ADD MSTORE PUSH32 0x4552433732314D657461646174613A2055524920717565727920666F72206E6F PUSH1 0x44 DUP3 ADD MSTORE PUSH15 0x3732BC34B9BA32B73A103A37B5B2B7 PUSH1 0x89 SHL PUSH1 0x64 DUP3 ADD MSTORE PUSH1 0x84 ADD PUSH2 0x88E JUMP JUMPDEST PUSH1 0x0 PUSH2 0x14D1 PUSH2 0x1B2F JUMP JUMPDEST SWAP1 POP PUSH1 0x0 DUP2 MLOAD GT PUSH2 0x14F1 JUMPI PUSH1 0x40 MLOAD DUP1 PUSH1 0x20 ADD PUSH1 0x40 MSTORE DUP1 PUSH1 0x0 DUP2 MSTORE POP PUSH2 0x151C JUMP JUMPDEST DUP1 PUSH2 0x14FB DUP5 PUSH2 0x1B3E JUMP JUMPDEST PUSH1 0x40 MLOAD PUSH1 0x20 ADD PUSH2 0x150C SWAP3 SWAP2 SWAP1 PUSH2 0x26AD JUMP JUMPDEST PUSH1 0x40 MLOAD PUSH1 0x20 DUP2 DUP4 SUB SUB DUP2 MSTORE SWAP1 PUSH1 0x40 MSTORE JUMPDEST SWAP4 SWAP3 POP POP POP JUMP JUMPDEST PUSH1 0xA SLOAD PUSH1 0x1 PUSH1 0x1 PUSH1 0xA0 SHL SUB AND CALLER EQ PUSH2 0x154D JUMPI PUSH1 0x40 MLOAD PUSH3 0x461BCD PUSH1 0xE5 SHL DUP2 MSTORE PUSH1 0x4 ADD PUSH2 0x88E SWAP1 PUSH2 0x256A JUMP JUMPDEST PUSH1 0xD DUP1 SLOAD PUSH2 0xFF00 NOT DUP2 AND PUSH2 0x100 SWAP2 DUP3 SWAP1 DIV PUSH1 0xFF AND ISZERO SWAP1 SWAP2 MUL OR SWAP1 SSTORE JUMP JUMPDEST PUSH1 0xA SLOAD PUSH1 0x1 PUSH1 0x1 PUSH1 0xA0 SHL SUB AND CALLER EQ PUSH2 0x1594 JUMPI PUSH1 0x40 MLOAD PUSH3 0x461BCD PUSH1 0xE5 SHL DUP2 MSTORE PUSH1 0x4 ADD PUSH2 0x88E SWAP1 PUSH2 0x256A JUMP JUMPDEST PUSH1 0x1 PUSH1 0x1 PUSH1 0xA0 SHL SUB DUP2 AND PUSH2 0x15F9 JUMPI PUSH1 0x40 MLOAD PUSH3 0x461BCD PUSH1 0xE5 SHL DUP2 MSTORE PUSH1 0x20 PUSH1 0x4 DUP3 ADD MSTORE PUSH1 0x26 PUSH1 0x24 DUP3 ADD MSTORE PUSH32 0x4F776E61626C653A206E6577206F776E657220697320746865207A65726F2061 PUSH1 0x44 DUP3 ADD MSTORE PUSH6 0x646472657373 PUSH1 0xD0 SHL PUSH1 0x64 DUP3 ADD MSTORE PUSH1 0x84 ADD PUSH2 0x88E JUMP JUMPDEST PUSH2 0x1602 DUP2 PUSH2 0x19DC JUMP JUMPDEST POP JUMP JUMPDEST PUSH1 0x0 PUSH1 0x1 PUSH1 0x1 PUSH1 0xE0 SHL SUB NOT DUP3 AND PUSH4 0x80AC58CD PUSH1 0xE0 SHL EQ DUP1 PUSH2 0x1636 JUMPI POP PUSH1 0x1 PUSH1 0x1 PUSH1 0xE0 SHL SUB NOT DUP3 AND PUSH4 0x5B5E139F PUSH1 0xE0 SHL EQ JUMPDEST DUP1 PUSH2 0x781 JUMPI POP PUSH4 0x1FFC9A7 PUSH1 0xE0 SHL PUSH1 0x1 PUSH1 0x1 PUSH1 0xE0 SHL SUB NOT DUP4 AND EQ PUSH2 0x781 JUMP JUMPDEST PUSH1 0x0 DUP2 DUP2 MSTORE PUSH1 0x4 PUSH1 0x20 MSTORE PUSH1 0x40 SWAP1 KECCAK256 DUP1 SLOAD PUSH1 0x1 PUSH1 0x1 PUSH1 0xA0 SHL SUB NOT AND PUSH1 0x1 PUSH1 0x1 PUSH1 0xA0 SHL SUB DUP5 AND SWAP1 DUP2 OR SWAP1 SWAP2 SSTORE DUP2 SWAP1 PUSH2 0x168A DUP3 PUSH2 0x11E4 JUMP JUMPDEST PUSH1 0x1 PUSH1 0x1 PUSH1 0xA0 SHL SUB AND PUSH32 0x8C5BE1E5EBEC7D5BD14F71427D1E84F3DD0314C0F7B2291E5B200AC8C7C3B925 PUSH1 0x40 MLOAD PUSH1 0x40 MLOAD DUP1 SWAP2 SUB SWAP1 LOG4 POP POP JUMP JUMPDEST PUSH1 0x0 DUP2 DUP2 MSTORE PUSH1 0x2 PUSH1 0x20 MSTORE PUSH1 0x40 DUP2 KECCAK256 SLOAD PUSH1 0x1 PUSH1 0x1 PUSH1 0xA0 SHL SUB AND PUSH2 0x173C JUMPI PUSH1 0x40 MLOAD PUSH3 0x461BCD PUSH1 0xE5 SHL DUP2 MSTORE PUSH1 0x20 PUSH1 0x4 DUP3 ADD MSTORE PUSH1 0x2C PUSH1 0x24 DUP3 ADD MSTORE PUSH32 0x4552433732313A206F70657261746F7220717565727920666F72206E6F6E6578 PUSH1 0x44 DUP3 ADD MSTORE PUSH12 0x34B9BA32B73A103A37B5B2B7 PUSH1 0xA1 SHL PUSH1 0x64 DUP3 ADD MSTORE PUSH1 0x84 ADD PUSH2 0x88E JUMP JUMPDEST PUSH1 0x0 PUSH2 0x1747 DUP4 PUSH2 0x11E4 JUMP JUMPDEST SWAP1 POP DUP1 PUSH1 0x1 PUSH1 0x1 PUSH1 0xA0 SHL SUB AND DUP5 PUSH1 0x1 PUSH1 0x1 PUSH1 0xA0 SHL SUB AND EQ DUP1 PUSH2 0x1782 JUMPI POP DUP4 PUSH1 0x1 PUSH1 0x1 PUSH1 0xA0 SHL SUB AND PUSH2 0x1777 DUP5 PUSH2 0x819 JUMP JUMPDEST PUSH1 0x1 PUSH1 0x1 PUSH1 0xA0 SHL SUB AND EQ JUMPDEST DUP1 PUSH2 0x17B2 JUMPI POP PUSH1 0x1 PUSH1 0x1 PUSH1 0xA0 SHL SUB DUP1 DUP3 AND PUSH1 0x0 SWAP1 DUP2 MSTORE PUSH1 0x5 PUSH1 0x20 SWAP1 DUP2 MSTORE PUSH1 0x40 DUP1 DUP4 KECCAK256 SWAP4 DUP9 AND DUP4 MSTORE SWAP3 SWAP1 MSTORE KECCAK256 SLOAD PUSH1 0xFF AND JUMPDEST SWAP5 SWAP4 POP POP POP POP JUMP JUMPDEST DUP3 PUSH1 0x1 PUSH1 0x1 PUSH1 0xA0 SHL SUB AND PUSH2 0x17CD DUP3 PUSH2 0x11E4 JUMP JUMPDEST PUSH1 0x1 PUSH1 0x1 PUSH1 0xA0 SHL SUB AND EQ PUSH2 0x1831 JUMPI PUSH1 0x40 MLOAD PUSH3 0x461BCD PUSH1 0xE5 SHL DUP2 MSTORE PUSH1 0x20 PUSH1 0x4 DUP3 ADD MSTORE PUSH1 0x25 PUSH1 0x24 DUP3 ADD MSTORE PUSH32 0x4552433732313A207472616E736665722066726F6D20696E636F727265637420 PUSH1 0x44 DUP3 ADD MSTORE PUSH5 0x37BBB732B9 PUSH1 0xD9 SHL PUSH1 0x64 DUP3 ADD MSTORE PUSH1 0x84 ADD PUSH2 0x88E JUMP JUMPDEST PUSH1 0x1 PUSH1 0x1 PUSH1 0xA0 SHL SUB DUP3 AND PUSH2 0x1893 JUMPI PUSH1 0x40 MLOAD PUSH3 0x461BCD PUSH1 0xE5 SHL DUP2 MSTORE PUSH1 0x20 PUSH1 0x4 DUP3 ADD MSTORE PUSH1 0x24 DUP1 DUP3 ADD MSTORE PUSH32 0x4552433732313A207472616E7366657220746F20746865207A65726F20616464 PUSH1 0x44 DUP3 ADD MSTORE PUSH4 0x72657373 PUSH1 0xE0 SHL PUSH1 0x64 DUP3 ADD MSTORE PUSH1 0x84 ADD PUSH2 0x88E JUMP JUMPDEST PUSH2 0x189E DUP4 DUP4 DUP4 PUSH2 0x1C3F JUMP JUMPDEST PUSH2 0x18A9 PUSH1 0x0 DUP3 PUSH2 0x1655 JUMP JUMPDEST PUSH1 0x1 PUSH1 0x1 PUSH1 0xA0 SHL SUB DUP4 AND PUSH1 0x0 SWAP1 DUP2 MSTORE PUSH1 0x3 PUSH1 0x20 MSTORE PUSH1 0x40 DUP2 KECCAK256 DUP1 SLOAD PUSH1 0x1 SWAP3 SWAP1 PUSH2 0x18D2 SWAP1 DUP5 SWAP1 PUSH2 0x2528 JUMP JUMPDEST SWAP1 SWAP2 SSTORE POP POP PUSH1 0x1 PUSH1 0x1 PUSH1 0xA0 SHL SUB DUP3 AND PUSH1 0x0 SWAP1 DUP2 MSTORE PUSH1 0x3 PUSH1 0x20 MSTORE PUSH1 0x40 DUP2 KECCAK256 DUP1 SLOAD PUSH1 0x1 SWAP3 SWAP1 PUSH2 0x1900 SWAP1 DUP5 SWAP1 PUSH2 0x24B6 JUMP JUMPDEST SWAP1 SWAP2 SSTORE POP POP PUSH1 0x0 DUP2 DUP2 MSTORE PUSH1 0x2 PUSH1 0x20 MSTORE PUSH1 0x40 DUP1 DUP3 KECCAK256 DUP1 SLOAD PUSH1 0x1 PUSH1 0x1 PUSH1 0xA0 SHL SUB NOT AND PUSH1 0x1 PUSH1 0x1 PUSH1 0xA0 SHL SUB DUP7 DUP2 AND SWAP2 DUP3 OR SWAP1 SWAP3 SSTORE SWAP2 MLOAD DUP5 SWAP4 SWAP2 DUP8 AND SWAP2 PUSH32 0xDDF252AD1BE2C89B69C2B068FC378DAA952BA7F163C4A11628F55A4DF523B3EF SWAP2 LOG4 POP POP POP JUMP JUMPDEST PUSH2 0x11E0 DUP3 DUP3 PUSH1 0x40 MLOAD DUP1 PUSH1 0x20 ADD PUSH1 0x40 MSTORE DUP1 PUSH1 0x0 DUP2 MSTORE POP PUSH2 0x1CF7 JUMP JUMPDEST PUSH1 0x0 DUP1 PUSH2 0x3E7 TIMESTAMP DIFFICULTY CALLER PUSH1 0x40 MLOAD PUSH1 0x20 ADD PUSH2 0x19B9 SWAP4 SWAP3 SWAP2 SWAP1 SWAP3 DUP4 MSTORE PUSH1 0x20 DUP4 ADD SWAP2 SWAP1 SWAP2 MSTORE PUSH1 0x60 SHL PUSH12 0xFFFFFFFFFFFFFFFFFFFFFFFF NOT AND PUSH1 0x40 DUP3 ADD MSTORE PUSH1 0x54 ADD SWAP1 JUMP JUMPDEST PUSH1 0x40 MLOAD PUSH1 0x20 DUP2 DUP4 SUB SUB DUP2 MSTORE SWAP1 PUSH1 0x40 MSTORE DUP1 MLOAD SWAP1 PUSH1 0x20 ADD KECCAK256 PUSH1 0x0 SHR PUSH2 0x781 SWAP2 SWAP1 PUSH2 0x26F2 JUMP JUMPDEST PUSH1 0xA DUP1 SLOAD PUSH1 0x1 PUSH1 0x1 PUSH1 0xA0 SHL SUB DUP4 DUP2 AND PUSH1 0x1 PUSH1 0x1 PUSH1 0xA0 SHL SUB NOT DUP4 AND DUP2 OR SWAP1 SWAP4 SSTORE PUSH1 0x40 MLOAD SWAP2 AND SWAP2 SWAP1 DUP3 SWAP1 PUSH32 0x8BE0079C531659141344CD1FD0A4F28419497F9722A3DAAFE3B4186F6B6457E0 SWAP1 PUSH1 0x0 SWAP1 LOG3 POP POP JUMP JUMPDEST DUP2 PUSH1 0x1 PUSH1 0x1 PUSH1 0xA0 SHL SUB AND DUP4 PUSH1 0x1 PUSH1 0x1 PUSH1 0xA0 SHL SUB AND SUB PUSH2 0x1A8F JUMPI PUSH1 0x40 MLOAD PUSH3 0x461BCD PUSH1 0xE5 SHL DUP2 MSTORE PUSH1 0x20 PUSH1 0x4 DUP3 ADD MSTORE PUSH1 0x19 PUSH1 0x24 DUP3 ADD MSTORE PUSH32 0x4552433732313A20617070726F766520746F2063616C6C657200000000000000 PUSH1 0x44 DUP3 ADD MSTORE PUSH1 0x64 ADD PUSH2 0x88E JUMP JUMPDEST PUSH1 0x1 PUSH1 0x1 PUSH1 0xA0 SHL SUB DUP4 DUP2 AND PUSH1 0x0 DUP2 DUP2 MSTORE PUSH1 0x5 PUSH1 0x20 SWAP1 DUP2 MSTORE PUSH1 0x40 DUP1 DUP4 KECCAK256 SWAP5 DUP8 AND DUP1 DUP5 MSTORE SWAP5 DUP3 MSTORE SWAP2 DUP3 SWAP1 KECCAK256 DUP1 SLOAD PUSH1 0xFF NOT AND DUP7 ISZERO ISZERO SWAP1 DUP2 OR SWAP1 SWAP2 SSTORE SWAP2 MLOAD SWAP2 DUP3 MSTORE PUSH32 0x17307EAB39AB6107E8899845AD3D59BD9653F200F220920489CA2B5937696C31 SWAP2 ADD PUSH1 0x40 MLOAD DUP1 SWAP2 SUB SWAP1 LOG3 POP POP POP JUMP JUMPDEST PUSH2 0x1B07 DUP5 DUP5 DUP5 PUSH2 0x17BA JUMP JUMPDEST PUSH2 0x1B13 DUP5 DUP5 DUP5 DUP5 PUSH2 0x1D2A JUMP JUMPDEST PUSH2 0x10C7 JUMPI PUSH1 0x40 MLOAD PUSH3 0x461BCD PUSH1 0xE5 SHL DUP2 MSTORE PUSH1 0x4 ADD PUSH2 0x88E SWAP1 PUSH2 0x2706 JUMP JUMPDEST PUSH1 0x60 PUSH1 0xB DUP1 SLOAD PUSH2 0x796 SWAP1 PUSH2 0x2415 JUMP JUMPDEST PUSH1 0x60 DUP2 PUSH1 0x0 SUB PUSH2 0x1B65 JUMPI POP POP PUSH1 0x40 DUP1 MLOAD DUP1 DUP3 ADD SWAP1 SWAP2 MSTORE PUSH1 0x1 DUP2 MSTORE PUSH1 0x3 PUSH1 0xFC SHL PUSH1 0x20 DUP3 ADD MSTORE SWAP1 JUMP JUMPDEST DUP2 PUSH1 0x0 JUMPDEST DUP2 ISZERO PUSH2 0x1B8F JUMPI DUP1 PUSH2 0x1B79 DUP2 PUSH2 0x253B JUMP JUMPDEST SWAP2 POP PUSH2 0x1B88 SWAP1 POP PUSH1 0xA DUP4 PUSH2 0x2758 JUMP JUMPDEST SWAP2 POP PUSH2 0x1B69 JUMP JUMPDEST PUSH1 0x0 DUP2 PUSH8 0xFFFFFFFFFFFFFFFF DUP2 GT ISZERO PUSH2 0x1BAA JUMPI PUSH2 0x1BAA PUSH2 0x2255 JUMP JUMPDEST PUSH1 0x40 MLOAD SWAP1 DUP1 DUP3 MSTORE DUP1 PUSH1 0x1F ADD PUSH1 0x1F NOT AND PUSH1 0x20 ADD DUP3 ADD PUSH1 0x40 MSTORE DUP1 ISZERO PUSH2 0x1BD4 JUMPI PUSH1 0x20 DUP3 ADD DUP2 DUP1 CALLDATASIZE DUP4 CALLDATACOPY ADD SWAP1 POP JUMPDEST POP SWAP1 POP JUMPDEST DUP5 ISZERO PUSH2 0x17B2 JUMPI PUSH2 0x1BE9 PUSH1 0x1 DUP4 PUSH2 0x2528 JUMP JUMPDEST SWAP2 POP PUSH2 0x1BF6 PUSH1 0xA DUP7 PUSH2 0x26F2 JUMP JUMPDEST PUSH2 0x1C01 SWAP1 PUSH1 0x30 PUSH2 0x24B6 JUMP JUMPDEST PUSH1 0xF8 SHL DUP2 DUP4 DUP2 MLOAD DUP2 LT PUSH2 0x1C16 JUMPI PUSH2 0x1C16 PUSH2 0x2554 JUMP JUMPDEST PUSH1 0x20 ADD ADD SWAP1 PUSH1 0x1 PUSH1 0x1 PUSH1 0xF8 SHL SUB NOT AND SWAP1 DUP2 PUSH1 0x0 BYTE SWAP1 MSTORE8 POP PUSH2 0x1C38 PUSH1 0xA DUP7 PUSH2 0x2758 JUMP JUMPDEST SWAP5 POP PUSH2 0x1BD8 JUMP JUMPDEST PUSH1 0x1 PUSH1 0x1 PUSH1 0xA0 SHL SUB DUP4 AND PUSH2 0x1C9A JUMPI PUSH2 0x1C95 DUP2 PUSH1 0x8 DUP1 SLOAD PUSH1 0x0 DUP4 DUP2 MSTORE PUSH1 0x9 PUSH1 0x20 MSTORE PUSH1 0x40 DUP2 KECCAK256 DUP3 SWAP1 SSTORE PUSH1 0x1 DUP3 ADD DUP4 SSTORE SWAP2 SWAP1 SWAP2 MSTORE PUSH32 0xF3F7A9FE364FAAB93B216DA50A3214154F22A0A2B415B23A84C8169E8B636EE3 ADD SSTORE JUMP JUMPDEST PUSH2 0x1CBD JUMP JUMPDEST DUP2 PUSH1 0x1 PUSH1 0x1 PUSH1 0xA0 SHL SUB AND DUP4 PUSH1 0x1 PUSH1 0x1 PUSH1 0xA0 SHL SUB AND EQ PUSH2 0x1CBD JUMPI PUSH2 0x1CBD DUP4 DUP3 PUSH2 0x1E2B JUMP JUMPDEST PUSH1 0x1 PUSH1 0x1 PUSH1 0xA0 SHL SUB DUP3 AND PUSH2 0x1CD4 JUMPI PUSH2 0x9C3 DUP2 PUSH2 0x1EC8 JUMP JUMPDEST DUP3 PUSH1 0x1 PUSH1 0x1 PUSH1 0xA0 SHL SUB AND DUP3 PUSH1 0x1 PUSH1 0x1 PUSH1 0xA0 SHL SUB AND EQ PUSH2 0x9C3 JUMPI PUSH2 0x9C3 DUP3 DUP3 PUSH2 0x1F77 JUMP JUMPDEST PUSH2 0x1D01 DUP4 DUP4 PUSH2 0x1FBB JUMP JUMPDEST PUSH2 0x1D0E PUSH1 0x0 DUP5 DUP5 DUP5 PUSH2 0x1D2A JUMP JUMPDEST PUSH2 0x9C3 JUMPI PUSH1 0x40 MLOAD PUSH3 0x461BCD PUSH1 0xE5 SHL DUP2 MSTORE PUSH1 0x4 ADD PUSH2 0x88E SWAP1 PUSH2 0x2706 JUMP JUMPDEST PUSH1 0x0 PUSH1 0x1 PUSH1 0x1 PUSH1 0xA0 SHL SUB DUP5 AND EXTCODESIZE ISZERO PUSH2 0x1E20 JUMPI PUSH1 0x40 MLOAD PUSH4 0xA85BD01 PUSH1 0xE1 SHL DUP2 MSTORE PUSH1 0x1 PUSH1 0x1 PUSH1 0xA0 SHL SUB DUP6 AND SWAP1 PUSH4 0x150B7A02 SWAP1 PUSH2 0x1D6E SWAP1 CALLER SWAP1 DUP10 SWAP1 DUP9 SWAP1 DUP9 SWAP1 PUSH1 0x4 ADD PUSH2 0x276C JUMP JUMPDEST PUSH1 0x20 PUSH1 0x40 MLOAD DUP1 DUP4 SUB DUP2 PUSH1 0x0 DUP8 GAS CALL SWAP3 POP POP POP DUP1 ISZERO PUSH2 0x1DA9 JUMPI POP PUSH1 0x40 DUP1 MLOAD PUSH1 0x1F RETURNDATASIZE SWAP1 DUP2 ADD PUSH1 0x1F NOT AND DUP3 ADD SWAP1 SWAP3 MSTORE PUSH2 0x1DA6 SWAP2 DUP2 ADD SWAP1 PUSH2 0x27A9 JUMP JUMPDEST PUSH1 0x1 JUMPDEST PUSH2 0x1E06 JUMPI RETURNDATASIZE DUP1 DUP1 ISZERO PUSH2 0x1DD7 JUMPI PUSH1 0x40 MLOAD SWAP2 POP PUSH1 0x1F NOT PUSH1 0x3F RETURNDATASIZE ADD AND DUP3 ADD PUSH1 0x40 MSTORE RETURNDATASIZE DUP3 MSTORE RETURNDATASIZE PUSH1 0x0 PUSH1 0x20 DUP5 ADD RETURNDATACOPY PUSH2 0x1DDC JUMP JUMPDEST PUSH1 0x60 SWAP2 POP JUMPDEST POP DUP1 MLOAD PUSH1 0x0 SUB PUSH2 0x1DFE JUMPI PUSH1 0x40 MLOAD PUSH3 0x461BCD PUSH1 0xE5 SHL DUP2 MSTORE PUSH1 0x4 ADD PUSH2 0x88E SWAP1 PUSH2 0x2706 JUMP JUMPDEST DUP1 MLOAD DUP2 PUSH1 0x20 ADD REVERT JUMPDEST PUSH1 0x1 PUSH1 0x1 PUSH1 0xE0 SHL SUB NOT AND PUSH4 0xA85BD01 PUSH1 0xE1 SHL EQ SWAP1 POP PUSH2 0x17B2 JUMP JUMPDEST POP PUSH1 0x1 SWAP5 SWAP4 POP POP POP POP JUMP JUMPDEST PUSH1 0x0 PUSH1 0x1 PUSH2 0x1E38 DUP5 PUSH2 0x12E9 JUMP JUMPDEST PUSH2 0x1E42 SWAP2 SWAP1 PUSH2 0x2528 JUMP JUMPDEST PUSH1 0x0 DUP4 DUP2 MSTORE PUSH1 0x7 PUSH1 0x20 MSTORE PUSH1 0x40 SWAP1 KECCAK256 SLOAD SWAP1 SWAP2 POP DUP1 DUP3 EQ PUSH2 0x1E95 JUMPI PUSH1 0x1 PUSH1 0x1 PUSH1 0xA0 SHL SUB DUP5 AND PUSH1 0x0 SWAP1 DUP2 MSTORE PUSH1 0x6 PUSH1 0x20 SWAP1 DUP2 MSTORE PUSH1 0x40 DUP1 DUP4 KECCAK256 DUP6 DUP5 MSTORE DUP3 MSTORE DUP1 DUP4 KECCAK256 SLOAD DUP5 DUP5 MSTORE DUP2 DUP5 KECCAK256 DUP2 SWAP1 SSTORE DUP4 MSTORE PUSH1 0x7 SWAP1 SWAP2 MSTORE SWAP1 KECCAK256 DUP2 SWAP1 SSTORE JUMPDEST POP PUSH1 0x0 SWAP2 DUP3 MSTORE PUSH1 0x7 PUSH1 0x20 SWAP1 DUP2 MSTORE PUSH1 0x40 DUP1 DUP5 KECCAK256 DUP5 SWAP1 SSTORE PUSH1 0x1 PUSH1 0x1 PUSH1 0xA0 SHL SUB SWAP1 SWAP5 AND DUP4 MSTORE PUSH1 0x6 DUP2 MSTORE DUP4 DUP4 KECCAK256 SWAP2 DUP4 MSTORE MSTORE SWAP1 DUP2 KECCAK256 SSTORE JUMP JUMPDEST PUSH1 0x8 SLOAD PUSH1 0x0 SWAP1 PUSH2 0x1EDA SWAP1 PUSH1 0x1 SWAP1 PUSH2 0x2528 JUMP JUMPDEST PUSH1 0x0 DUP4 DUP2 MSTORE PUSH1 0x9 PUSH1 0x20 MSTORE PUSH1 0x40 DUP2 KECCAK256 SLOAD PUSH1 0x8 DUP1 SLOAD SWAP4 SWAP5 POP SWAP1 SWAP3 DUP5 SWAP1 DUP2 LT PUSH2 0x1F02 JUMPI PUSH2 0x1F02 PUSH2 0x2554 JUMP JUMPDEST SWAP1 PUSH1 0x0 MSTORE PUSH1 0x20 PUSH1 0x0 KECCAK256 ADD SLOAD SWAP1 POP DUP1 PUSH1 0x8 DUP4 DUP2 SLOAD DUP2 LT PUSH2 0x1F23 JUMPI PUSH2 0x1F23 PUSH2 0x2554 JUMP JUMPDEST PUSH1 0x0 SWAP2 DUP3 MSTORE PUSH1 0x20 DUP1 DUP4 KECCAK256 SWAP1 SWAP2 ADD SWAP3 SWAP1 SWAP3 SSTORE DUP3 DUP2 MSTORE PUSH1 0x9 SWAP1 SWAP2 MSTORE PUSH1 0x40 DUP1 DUP3 KECCAK256 DUP5 SWAP1 SSTORE DUP6 DUP3 MSTORE DUP2 KECCAK256 SSTORE PUSH1 0x8 DUP1 SLOAD DUP1 PUSH2 0x1F5B JUMPI PUSH2 0x1F5B PUSH2 0x27C6 JUMP JUMPDEST PUSH1 0x1 SWAP1 SUB DUP2 DUP2 SWAP1 PUSH1 0x0 MSTORE PUSH1 0x20 PUSH1 0x0 KECCAK256 ADD PUSH1 0x0 SWAP1 SSTORE SWAP1 SSTORE POP POP POP POP JUMP JUMPDEST PUSH1 0x0 PUSH2 0x1F82 DUP4 PUSH2 0x12E9 JUMP JUMPDEST PUSH1 0x1 PUSH1 0x1 PUSH1 0xA0 SHL SUB SWAP1 SWAP4 AND PUSH1 0x0 SWAP1 DUP2 MSTORE PUSH1 0x6 PUSH1 0x20 SWAP1 DUP2 MSTORE PUSH1 0x40 DUP1 DUP4 KECCAK256 DUP7 DUP5 MSTORE DUP3 MSTORE DUP1 DUP4 KECCAK256 DUP6 SWAP1 SSTORE SWAP4 DUP3 MSTORE PUSH1 0x7 SWAP1 MSTORE SWAP2 SWAP1 SWAP2 KECCAK256 SWAP2 SWAP1 SWAP2 SSTORE POP JUMP JUMPDEST PUSH1 0x1 PUSH1 0x1 PUSH1 0xA0 SHL SUB DUP3 AND PUSH2 0x2011 JUMPI PUSH1 0x40 MLOAD PUSH3 0x461BCD PUSH1 0xE5 SHL DUP2 MSTORE PUSH1 0x20 PUSH1 0x4 DUP3 ADD DUP2 SWAP1 MSTORE PUSH1 0x24 DUP3 ADD MSTORE PUSH32 0x4552433732313A206D696E7420746F20746865207A65726F2061646472657373 PUSH1 0x44 DUP3 ADD MSTORE PUSH1 0x64 ADD PUSH2 0x88E JUMP JUMPDEST PUSH1 0x0 DUP2 DUP2 MSTORE PUSH1 0x2 PUSH1 0x20 MSTORE PUSH1 0x40 SWAP1 KECCAK256 SLOAD PUSH1 0x1 PUSH1 0x1 PUSH1 0xA0 SHL SUB AND ISZERO PUSH2 0x2076 JUMPI PUSH1 0x40 MLOAD PUSH3 0x461BCD PUSH1 0xE5 SHL DUP2 MSTORE PUSH1 0x20 PUSH1 0x4 DUP3 ADD MSTORE PUSH1 0x1C PUSH1 0x24 DUP3 ADD MSTORE PUSH32 0x4552433732313A20746F6B656E20616C7265616479206D696E74656400000000 PUSH1 0x44 DUP3 ADD MSTORE PUSH1 0x64 ADD PUSH2 0x88E JUMP JUMPDEST PUSH2 0x2082 PUSH1 0x0 DUP4 DUP4 PUSH2 0x1C3F JUMP JUMPDEST PUSH1 0x1 PUSH1 0x1 PUSH1 0xA0 SHL SUB DUP3 AND PUSH1 0x0 SWAP1 DUP2 MSTORE PUSH1 0x3 PUSH1 0x20 MSTORE PUSH1 0x40 DUP2 KECCAK256 DUP1 SLOAD PUSH1 0x1 SWAP3 SWAP1 PUSH2 0x20AB SWAP1 DUP5 SWAP1 PUSH2 0x24B6 JUMP JUMPDEST SWAP1 SWAP2 SSTORE POP POP PUSH1 0x0 DUP2 DUP2 MSTORE PUSH1 0x2 PUSH1 0x20 MSTORE PUSH1 0x40 DUP1 DUP3 KECCAK256 DUP1 SLOAD PUSH1 0x1 PUSH1 0x1 PUSH1 0xA0 SHL SUB NOT AND PUSH1 0x1 PUSH1 0x1 PUSH1 0xA0 SHL SUB DUP7 AND SWAP1 DUP2 OR SWAP1 SWAP2 SSTORE SWAP1 MLOAD DUP4 SWAP3 SWAP1 PUSH32 0xDDF252AD1BE2C89B69C2B068FC378DAA952BA7F163C4A11628F55A4DF523B3EF SWAP1 DUP3 SWAP1 LOG4 POP POP JUMP JUMPDEST PUSH1 0x1 PUSH1 0x1 PUSH1 0xE0 SHL SUB NOT DUP2 AND DUP2 EQ PUSH2 0x1602 JUMPI PUSH1 0x0 DUP1 REVERT JUMPDEST PUSH1 0x0 PUSH1 0x20 DUP3 DUP5 SUB SLT ISZERO PUSH2 0x2131 JUMPI PUSH1 0x0 DUP1 REVERT JUMPDEST DUP2 CALLDATALOAD PUSH2 0x151C DUP2 PUSH2 0x2109 JUMP JUMPDEST PUSH1 0x0 JUMPDEST DUP4 DUP2 LT ISZERO PUSH2 0x2157 JUMPI DUP2 DUP2 ADD MLOAD DUP4 DUP3 ADD MSTORE PUSH1 0x20 ADD PUSH2 0x213F JUMP JUMPDEST POP POP PUSH1 0x0 SWAP2 ADD MSTORE JUMP JUMPDEST PUSH1 0x0 DUP2 MLOAD DUP1 DUP5 MSTORE PUSH2 0x2178 DUP2 PUSH1 0x20 DUP7 ADD PUSH1 0x20 DUP7 ADD PUSH2 0x213C JUMP JUMPDEST PUSH1 0x1F ADD PUSH1 0x1F NOT AND SWAP3 SWAP1 SWAP3 ADD PUSH1 0x20 ADD SWAP3 SWAP2 POP POP JUMP JUMPDEST PUSH1 0x20 DUP2 MSTORE PUSH1 0x0 PUSH2 0x151C PUSH1 0x20 DUP4 ADD DUP5 PUSH2 0x2160 JUMP JUMPDEST PUSH1 0x0 PUSH1 0x20 DUP3 DUP5 SUB SLT ISZERO PUSH2 0x21B1 JUMPI PUSH1 0x0 DUP1 REVERT JUMPDEST POP CALLDATALOAD SWAP2 SWAP1 POP JUMP JUMPDEST DUP1 CALLDATALOAD PUSH1 0x1 PUSH1 0x1 PUSH1 0xA0 SHL SUB DUP2 AND DUP2 EQ PUSH2 0x21CF JUMPI PUSH1 0x0 DUP1 REVERT JUMPDEST SWAP2 SWAP1 POP JUMP JUMPDEST PUSH1 0x0 DUP1 PUSH1 0x40 DUP4 DUP6 SUB SLT ISZERO PUSH2 0x21E7 JUMPI PUSH1 0x0 DUP1 REVERT JUMPDEST PUSH2 0x21F0 DUP4 PUSH2 0x21B8 JUMP JUMPDEST SWAP5 PUSH1 0x20 SWAP4 SWAP1 SWAP4 ADD CALLDATALOAD SWAP4 POP POP POP JUMP JUMPDEST PUSH1 0x0 PUSH1 0x20 DUP3 DUP5 SUB SLT ISZERO PUSH2 0x2210 JUMPI PUSH1 0x0 DUP1 REVERT JUMPDEST PUSH2 0x151C DUP3 PUSH2 0x21B8 JUMP JUMPDEST PUSH1 0x0 DUP1 PUSH1 0x0 PUSH1 0x60 DUP5 DUP7 SUB SLT ISZERO PUSH2 0x222E JUMPI PUSH1 0x0 DUP1 REVERT JUMPDEST PUSH2 0x2237 DUP5 PUSH2 0x21B8 JUMP JUMPDEST SWAP3 POP PUSH2 0x2245 PUSH1 0x20 DUP6 ADD PUSH2 0x21B8 JUMP JUMPDEST SWAP2 POP PUSH1 0x40 DUP5 ADD CALLDATALOAD SWAP1 POP SWAP3 POP SWAP3 POP SWAP3 JUMP JUMPDEST PUSH4 0x4E487B71 PUSH1 0xE0 SHL PUSH1 0x0 MSTORE PUSH1 0x41 PUSH1 0x4 MSTORE PUSH1 0x24 PUSH1 0x0 REVERT JUMPDEST PUSH1 0x0 PUSH8 0xFFFFFFFFFFFFFFFF DUP1 DUP5 GT ISZERO PUSH2 0x2286 JUMPI PUSH2 0x2286 PUSH2 0x2255 JUMP JUMPDEST PUSH1 0x40 MLOAD PUSH1 0x1F DUP6 ADD PUSH1 0x1F NOT SWAP1 DUP2 AND PUSH1 0x3F ADD AND DUP2 ADD SWAP1 DUP3 DUP3 GT DUP2 DUP4 LT OR ISZERO PUSH2 0x22AE JUMPI PUSH2 0x22AE PUSH2 0x2255 JUMP JUMPDEST DUP2 PUSH1 0x40 MSTORE DUP1 SWAP4 POP DUP6 DUP2 MSTORE DUP7 DUP7 DUP7 ADD GT ISZERO PUSH2 0x22C7 JUMPI PUSH1 0x0 DUP1 REVERT JUMPDEST DUP6 DUP6 PUSH1 0x20 DUP4 ADD CALLDATACOPY PUSH1 0x0 PUSH1 0x20 DUP8 DUP4 ADD ADD MSTORE POP POP POP SWAP4 SWAP3 POP POP POP JUMP JUMPDEST PUSH1 0x0 PUSH1 0x20 DUP3 DUP5 SUB SLT ISZERO PUSH2 0x22F3 JUMPI PUSH1 0x0 DUP1 REVERT JUMPDEST DUP2 CALLDATALOAD PUSH8 0xFFFFFFFFFFFFFFFF DUP2 GT ISZERO PUSH2 0x230A JUMPI PUSH1 0x0 DUP1 REVERT JUMPDEST DUP3 ADD PUSH1 0x1F DUP2 ADD DUP5 SGT PUSH2 0x231B JUMPI PUSH1 0x0 DUP1 REVERT JUMPDEST PUSH2 0x17B2 DUP5 DUP3 CALLDATALOAD PUSH1 0x20 DUP5 ADD PUSH2 0x226B JUMP JUMPDEST PUSH1 0x0 DUP1 PUSH1 0x40 DUP4 DUP6 SUB SLT ISZERO PUSH2 0x233D JUMPI PUSH1 0x0 DUP1 REVERT JUMPDEST PUSH2 0x2346 DUP4 PUSH2 0x21B8 JUMP JUMPDEST SWAP2 POP PUSH1 0x20 DUP4 ADD CALLDATALOAD DUP1 ISZERO ISZERO DUP2 EQ PUSH2 0x235B JUMPI PUSH1 0x0 DUP1 REVERT JUMPDEST DUP1 SWAP2 POP POP SWAP3 POP SWAP3 SWAP1 POP JUMP JUMPDEST PUSH1 0x0 DUP1 PUSH1 0x0 DUP1 PUSH1 0x80 DUP6 DUP8 SUB SLT ISZERO PUSH2 0x237C JUMPI PUSH1 0x0 DUP1 REVERT JUMPDEST PUSH2 0x2385 DUP6 PUSH2 0x21B8 JUMP JUMPDEST SWAP4 POP PUSH2 0x2393 PUSH1 0x20 DUP7 ADD PUSH2 0x21B8 JUMP JUMPDEST SWAP3 POP PUSH1 0x40 DUP6 ADD CALLDATALOAD SWAP2 POP PUSH1 0x60 DUP6 ADD CALLDATALOAD PUSH8 0xFFFFFFFFFFFFFFFF DUP2 GT ISZERO PUSH2 0x23B6 JUMPI PUSH1 0x0 DUP1 REVERT JUMPDEST DUP6 ADD PUSH1 0x1F DUP2 ADD DUP8 SGT PUSH2 0x23C7 JUMPI PUSH1 0x0 DUP1 REVERT JUMPDEST PUSH2 0x23D6 DUP8 DUP3 CALLDATALOAD PUSH1 0x20 DUP5 ADD PUSH2 0x226B JUMP JUMPDEST SWAP2 POP POP SWAP3 SWAP6 SWAP2 SWAP5 POP SWAP3 POP JUMP JUMPDEST PUSH1 0x0 DUP1 PUSH1 0x40 DUP4 DUP6 SUB SLT ISZERO PUSH2 0x23F5 JUMPI PUSH1 0x0 DUP1 REVERT JUMPDEST PUSH2 0x23FE DUP4 PUSH2 0x21B8 JUMP JUMPDEST SWAP2 POP PUSH2 0x240C PUSH1 0x20 DUP5 ADD PUSH2 0x21B8 JUMP JUMPDEST SWAP1 POP SWAP3 POP SWAP3 SWAP1 POP JUMP JUMPDEST PUSH1 0x1 DUP2 DUP2 SHR SWAP1 DUP3 AND DUP1 PUSH2 0x2429 JUMPI PUSH1 0x7F DUP3 AND SWAP2 POP JUMPDEST PUSH1 0x20 DUP3 LT DUP2 SUB PUSH2 0x2449 JUMPI PUSH4 0x4E487B71 PUSH1 0xE0 SHL PUSH1 0x0 MSTORE PUSH1 0x22 PUSH1 0x4 MSTORE PUSH1 0x24 PUSH1 0x0 REVERT JUMPDEST POP SWAP2 SWAP1 POP JUMP JUMPDEST PUSH1 0x20 DUP1 DUP3 MSTORE PUSH1 0x31 SWAP1 DUP3 ADD MSTORE PUSH32 0x4552433732313A207472616E736665722063616C6C6572206973206E6F74206F PUSH1 0x40 DUP3 ADD MSTORE PUSH17 0x1DDB995C881B9BDC88185C1C1C9BDD9959 PUSH1 0x7A SHL PUSH1 0x60 DUP3 ADD MSTORE PUSH1 0x80 ADD SWAP1 JUMP JUMPDEST PUSH4 0x4E487B71 PUSH1 0xE0 SHL PUSH1 0x0 MSTORE PUSH1 0x11 PUSH1 0x4 MSTORE PUSH1 0x24 PUSH1 0x0 REVERT JUMPDEST DUP1 DUP3 ADD DUP1 DUP3 GT ISZERO PUSH2 0x781 JUMPI PUSH2 0x781 PUSH2 0x24A0 JUMP JUMPDEST PUSH1 0x20 DUP1 DUP3 MSTORE PUSH1 0x28 SWAP1 DUP3 ADD MSTORE PUSH32 0x507572636861736520776F756C6420657863656564206D617820737570706C79 PUSH1 0x40 DUP3 ADD MSTORE PUSH8 0x206F66204E465473 PUSH1 0xC0 SHL PUSH1 0x60 DUP3 ADD MSTORE PUSH1 0x80 ADD SWAP1 JUMP JUMPDEST DUP1 DUP3 MUL DUP2 ISZERO DUP3 DUP3 DIV DUP5 EQ OR PUSH2 0x781 JUMPI PUSH2 0x781 PUSH2 0x24A0 JUMP JUMPDEST DUP2 DUP2 SUB DUP2 DUP2 GT ISZERO PUSH2 0x781 JUMPI PUSH2 0x781 PUSH2 0x24A0 JUMP JUMPDEST PUSH1 0x0 PUSH1 0x1 DUP3 ADD PUSH2 0x254D JUMPI PUSH2 0x254D PUSH2 0x24A0 JUMP JUMPDEST POP PUSH1 0x1 ADD SWAP1 JUMP JUMPDEST PUSH4 0x4E487B71 PUSH1 0xE0 SHL PUSH1 0x0 MSTORE PUSH1 0x32 PUSH1 0x4 MSTORE PUSH1 0x24 PUSH1 0x0 REVERT JUMPDEST PUSH1 0x20 DUP1 DUP3 MSTORE DUP2 DUP2 ADD MSTORE PUSH32 0x4F776E61626C653A2063616C6C6572206973206E6F7420746865206F776E6572 PUSH1 0x40 DUP3 ADD MSTORE PUSH1 0x60 ADD SWAP1 JUMP JUMPDEST PUSH1 0x1F DUP3 GT ISZERO PUSH2 0x9C3 JUMPI PUSH1 0x0 DUP2 DUP2 MSTORE PUSH1 0x20 DUP2 KECCAK256 PUSH1 0x1F DUP6 ADD PUSH1 0x5 SHR DUP2 ADD PUSH1 0x20 DUP7 LT ISZERO PUSH2 0x25C6 JUMPI POP DUP1 JUMPDEST PUSH1 0x1F DUP6 ADD PUSH1 0x5 SHR DUP3 ADD SWAP2 POP JUMPDEST DUP2 DUP2 LT ISZERO PUSH2 0x25E5 JUMPI DUP3 DUP2 SSTORE PUSH1 0x1 ADD PUSH2 0x25D2 JUMP JUMPDEST POP POP POP POP POP POP JUMP JUMPDEST DUP2 MLOAD PUSH8 0xFFFFFFFFFFFFFFFF DUP2 GT ISZERO PUSH2 0x2607 JUMPI PUSH2 0x2607 PUSH2 0x2255 JUMP JUMPDEST PUSH2 0x261B DUP2 PUSH2 0x2615 DUP5 SLOAD PUSH2 0x2415 JUMP JUMPDEST DUP5 PUSH2 0x259F JUMP JUMPDEST PUSH1 0x20 DUP1 PUSH1 0x1F DUP4 GT PUSH1 0x1 DUP2 EQ PUSH2 0x2650 JUMPI PUSH1 0x0 DUP5 ISZERO PUSH2 0x2638 JUMPI POP DUP6 DUP4 ADD MLOAD JUMPDEST PUSH1 0x0 NOT PUSH1 0x3 DUP7 SWAP1 SHL SHR NOT AND PUSH1 0x1 DUP6 SWAP1 SHL OR DUP6 SSTORE PUSH2 0x25E5 JUMP JUMPDEST PUSH1 0x0 DUP6 DUP2 MSTORE PUSH1 0x20 DUP2 KECCAK256 PUSH1 0x1F NOT DUP7 AND SWAP2 JUMPDEST DUP3 DUP2 LT ISZERO PUSH2 0x267F JUMPI DUP9 DUP7 ADD MLOAD DUP3 SSTORE SWAP5 DUP5 ADD SWAP5 PUSH1 0x1 SWAP1 SWAP2 ADD SWAP1 DUP5 ADD PUSH2 0x2660 JUMP JUMPDEST POP DUP6 DUP3 LT ISZERO PUSH2 0x269D JUMPI DUP8 DUP6 ADD MLOAD PUSH1 0x0 NOT PUSH1 0x3 DUP9 SWAP1 SHL PUSH1 0xF8 AND SHR NOT AND DUP2 SSTORE JUMPDEST POP POP POP POP POP PUSH1 0x1 SWAP1 DUP2 SHL ADD SWAP1 SSTORE POP JUMP JUMPDEST PUSH1 0x0 DUP4 MLOAD PUSH2 0x26BF DUP2 DUP5 PUSH1 0x20 DUP9 ADD PUSH2 0x213C JUMP JUMPDEST DUP4 MLOAD SWAP1 DUP4 ADD SWAP1 PUSH2 0x26D3 DUP2 DUP4 PUSH1 0x20 DUP9 ADD PUSH2 0x213C JUMP JUMPDEST ADD SWAP5 SWAP4 POP POP POP POP JUMP JUMPDEST PUSH4 0x4E487B71 PUSH1 0xE0 SHL PUSH1 0x0 MSTORE PUSH1 0x12 PUSH1 0x4 MSTORE PUSH1 0x24 PUSH1 0x0 REVERT JUMPDEST PUSH1 0x0 DUP3 PUSH2 0x2701 JUMPI PUSH2 0x2701 PUSH2 0x26DC JUMP JUMPDEST POP MOD SWAP1 JUMP JUMPDEST PUSH1 0x20 DUP1 DUP3 MSTORE PUSH1 0x32 SWAP1 DUP3 ADD MSTORE PUSH32 0x4552433732313A207472616E7366657220746F206E6F6E204552433732315265 PUSH1 0x40 DUP3 ADD MSTORE PUSH18 0x31B2B4BB32B91034B6B83632B6B2B73A32B9 PUSH1 0x71 SHL PUSH1 0x60 DUP3 ADD MSTORE PUSH1 0x80 ADD SWAP1 JUMP JUMPDEST PUSH1 0x0 DUP3 PUSH2 0x2767 JUMPI PUSH2 0x2767 PUSH2 0x26DC JUMP JUMPDEST POP DIV SWAP1 JUMP JUMPDEST PUSH1 0x1 PUSH1 0x1 PUSH1 0xA0 SHL SUB DUP6 DUP2 AND DUP3 MSTORE DUP5 AND PUSH1 0x20 DUP3 ADD MSTORE PUSH1 0x40 DUP2 ADD DUP4 SWAP1 MSTORE PUSH1 0x80 PUSH1 0x60 DUP3 ADD DUP2 SWAP1 MSTORE PUSH1 0x0 SWAP1 PUSH2 0x279F SWAP1 DUP4 ADD DUP5 PUSH2 0x2160 JUMP JUMPDEST SWAP7 SWAP6 POP POP POP POP POP POP JUMP JUMPDEST PUSH1 0x0 PUSH1 0x20 DUP3 DUP5 SUB SLT ISZERO PUSH2 0x27BB JUMPI PUSH1 0x0 DUP1 REVERT JUMPDEST DUP2 MLOAD PUSH2 0x151C DUP2 PUSH2 0x2109 JUMP JUMPDEST PUSH4 0x4E487B71 PUSH1 0xE0 SHL PUSH1 0x0 MSTORE PUSH1 0x31 PUSH1 0x4 MSTORE PUSH1 0x24 PUSH1 0x0 REVERT INVALID LOG2 PUSH5 0x6970667358 0x22 SLT KECCAK256 0x5D SWAP9 0x5E PUSH18 0x527649F99C1BE0FB50D5A7477C61373A9722 PUSH6 0xC969B16C8C07 0xCE PUSH23 0xD964736F6C634300081100330000000000000000000000 ",
  "sha1": "fe576ba944a224457c945985991b2da061300d4c",
  "source": "//SPDX-License-Identifier: MIT\n\npragma solidity ^0.8.7;\n\nimport \"@openzeppelin/contracts/token/ERC721/extensions/ERC721Enumerable.sol\";\nimport \"@openzeppelin/contracts/access/Ownable.sol\";\n\ncontract LdcNFT is ERC721Enumerable, Ownable {\n  using Strings for uint256;\n\n  string public baseURI;\n  string public baseExtension = \".json\";\n  bool public preSaleOn = false;\n  bool public publicSaleOn = false;\n  bool public santaAlgorithmOn = false;\n  bool public revealed = false;\n  uint256 public maxSupply = 2500;\n  uint256 public reserved = 100;\n  uint256 public preSaleCost = 0.055 ether;\n  uint256 public publicSaleCost = 0.065 ether;\n  uint256 public preSaleMaxMintAmount = 3;\n  uint256 public publicSaleMaxMintAmount = 6;\n  uint256 public prizeAmount = 6 ether;\n  uint256 public prize1ETH = 1 ether;\n  uint256 public prize05ETH = 0.5 ether;\n  uint256 public prize01ETH = 0.1 ether;\n\n  mapping (address => uint256) public minted;\n  mapping (address => bool) public whiteListedWallets;\n\n  constructor(\n    string memory _name,\n    string memory _symbol,\n    string memory _initBaseURI\n  ) ERC721(_name, _symbol) {\n    setBaseURI(_initBaseURI);\n  }\n\n  // internal\n  function _baseURI() internal view virtual override returns (string memory) {\n    return baseURI;\n  }\n\n  function mint(address _to, uint256 _mintAmount) public payable {\n    bool saleOn = (preSaleOn || publicSaleOn);\n    require(saleOn, \"Sale must be ON\");\n     \n    uint256 supply = totalSupply();\n\n    if (msg.sender != owner()) {\n     if (preSaleOn) {\n      require(preSaleOn, \"Presale must be ON\");\n      require(_mintAmount > 0, \"Mint abmount must be more than 0\");\n      require(whiteListedWallets[msg.sender] == true, \"You aren't whitelisted!\");\n      require(supply + _mintAmount <= maxSupply, \"Purchase would exceed max supply of NFTs\");\n      require(minted[msg.sender] + _mintAmount <= preSaleMaxMintAmount, \"Purchase would exceed max tokens for presale\");\n      require(msg.value >= preSaleCost * _mintAmount, \"Ether value sent is not correct\");\n\n     } else if (publicSaleOn) {\n      require(publicSaleOn, \"Publicsale must be ON\");\n      require(_mintAmount > 0, \"Mint abmount must be more than 0\");\n      require(supply + _mintAmount <= maxSupply - reserved, \"Purchase would exceed max supply of NFTs\");\n      require(minted[msg.sender] + _mintAmount <= publicSaleMaxMintAmount, \"Purchase would exceed max tokens for sale\");\n      require(msg.value >= publicSaleCost * _mintAmount, \"Ether value sent is not correct\");\n      \n      }\n    }\n\n    for (uint256 i = 1; i <= _mintAmount; i++) {\n          _safeMint(_to, supply + i);\n    } \n\n    minted[msg.sender] += _mintAmount;  \n\n      // Santa algorithm\n    if (santaAlgorithmOn && prizeAmount > 0 && msg.sender != owner()) {\n      \n      uint rnd = random();        \n      if (rnd < 1 && address(this).balance > prize1ETH) {\n        payable(_to).transfer(prize1ETH);\n        prizeAmount -= prize1ETH;\n      } else if (rnd < 4 && address(this).balance > prize05ETH) {\n        payable(_to).transfer(prize05ETH);\n        prizeAmount -= prize05ETH;\n      } else if (rnd < 80 && address(this).balance > prize01ETH) {\n        payable(_to).transfer(prize01ETH);\n        prizeAmount -= prize01ETH;\n      }\n    }\n   }\n\n  function random() internal returns (uint) {\n    uint randomnumber = uint(keccak256(abi.encodePacked(block.timestamp, block.difficulty, msg.sender))) % 999;\n    return randomnumber;\n  }\n\n  function setPrizeAmount(uint256 _prizeAmount) public onlyOwner {\n    prizeAmount = _prizeAmount;\n  }\n    \n  function flipPublicSaleOn() public onlyOwner {\n    publicSaleOn = !publicSaleOn;\n  }\n\n  function flipSantaAlgorithmOn() public onlyOwner {\n    santaAlgorithmOn = !santaAlgorithmOn;\n  }\n  \n  function setBaseURI(string memory _newBaseURI) public onlyOwner {\n    baseURI = _newBaseURI;\n  }\n  \n  receive() external payable {\n\n  }\n}\n",
  "sourcePath": "contracts/LdcNFT.sol",
  "type": "contract"
}