{"abi":[{"inputs":[{"internalType":"uint256","name":"version","type":"uint256"}],"name":"updateSensors","outputs":[],"stateMutability":"nonpayable","type":"function"},{"inputs":[],"name":"updated","outputs":[{"internalType":"bool","name":"","type":"bool"}],"stateMutability":"view","type":"function"}],"bytecode":"608060405234801561001057600080fd5b5060ce8061001f6000396000f3fe6080604052348015600f57600080fd5b506004361060325760003560e01c80637b2aab03146037578063ca4f14c4146057575b600080fd5b60005460439060ff1681565b604051901515815260200160405180910390f35b606660623660046080565b6068565b005b80600a03607d576000805460ff191660011790555b50565b600060208284031215609157600080fd5b503591905056fea26469706673582212200f1bada2e10f847341e0ec4fbb6554550964e1f2efd0b7f45c93fb90be15ff4564736f6c63430008130033","bytecodeSha1":"f2f0703c46cc7265c701eb3e44e95dbd7c22f42d","compiler":{"evm_version":"istanbul","optimizer":{"enabled":true,"runs":200},"version":"0.8.19+commit.7dd6d404"},"contractName":"Unknown","language":"Solidity","natspec":{"kind":"dev","methods":{},"version":1},"opcodes":"PUSH1 0x80 PUSH1 0x40 MSTORE CALLVALUE DUP1 ISZERO PUSH1 0xF JUMPI PUSH1 0x0 DUP1 REVERT JUMPDEST POP PUSH1 0x4 CALLDATASIZE LT PUSH1 0x32 JUMPI PUSH1 0x0 CALLDATALOAD PUSH1 0xE0 SHR DUP1 PUSH4 0x7B2AAB03 EQ PUSH1 0x37 JUMPI DUP1 PUSH4 0xCA4F14C4 EQ PUSH1 0x57 JUMPI JUMPDEST PUSH1 0x0 DUP1 REVERT JUMPDEST PUSH1 0x0 SLOAD PUSH1 0x43 SWAP1 PUSH1 0xFF AND DUP2 JUMP JUMPDEST PUSH1 0x40 MLOAD SWAP1 ISZERO ISZERO DUP2 MSTORE PUSH1 0x20 ADD PUSH1 0x40 MLOAD DUP1 SWAP2 SUB SWAP1 RETURN JUMPDEST PUSH1 0x66 PUSH1 0x62 CALLDATASIZE PUSH1 0x4 PUSH1 0x80 JUMP JUMPDEST PUSH1 0x68 JUMP JUMPDEST STOP JUMPDEST DUP1 PUSH1 0xA SUB PUSH1 0x7D JUMPI PUSH1 0x0 DUP1 SLOAD PUSH1 0xFF NOT AND PUSH1 0x1 OR SWAP1 SSTORE JUMPDEST POP JUMP JUMPDEST PUSH1 0x0 PUSH1 0x20 DUP3 DUP5 SUB SLT ISZERO PUSH1 0x91 JUMPI PUSH1 0x0 DUP1 REVERT JUMPDEST POP CALLDATALOAD SWAP2 SWAP1 POP JUMP INVALID LOG2 PUSH5 0x6970667358 0x22 SLT KECCAK256 0xF SHL 0xAD LOG2 0xE1 0xF DUP5 PUSH20 0x41E0EC4FBB6554550964E1F2EFD0B7F45C93FB90 0xBE ISZERO SELFDESTRUCT GASLIMIT PUSH5 0x736F6C6343 STOP ADDMOD SGT STOP CALLER ","sha1":"20fac9f112013a77e6407d644a55cd3bc3de2325","source":"pragma solidity ^0.8.18;\n\n\ncontract Unknown {\n    \n    bool public updated;\n\n    function updateSensors(uint256 version) external {\n        if (version == 10) {\n            updated = true;\n        }\n    }\n\n}\n","sourcePath":"contracts/Unknown.sol","type":"contract","deployment":{"address":"0x891deB1C64ca991eC507aCb376ebDdD065D183a0","chainid":"1337","blockHeight":1}}