{"abi":[{"inputs":[],"stateMutability":"nonpayable","type":"constructor","name":"constructor"},{"inputs":[],"name":"TARGET","outputs":[{"internalType":"contract Unknown","name":"","type":"address"}],"stateMutability":"view","type":"function"},{"inputs":[],"name":"isSolved","outputs":[{"internalType":"bool","name":"","type":"bool"}],"stateMutability":"view","type":"function"}],"bytecode":"60a060405234801561001057600080fd5b5060405161001d9061004b565b604051809103906000f080158015610039573d6000803e3d6000fd5b506001600160a01b0316608052610057565b60ed806101f683390190565b60805161017f61007760003960008181605d0152609b015261017f6000f3fe608060405234801561001057600080fd5b50600436106100365760003560e01c806364d98f6e1461003b578063cc1f2afa14610058575b600080fd5b610043610097565b60405190151581526020015b60405180910390f35b61007f7f000000000000000000000000000000000000000000000000000000000000000081565b6040516001600160a01b03909116815260200161004f565b60007f00000000000000000000000000000000000000000000000000000000000000006001600160a01b0316637b2aab036040518163ffffffff1660e01b8152600401602060405180830381865afa1580156100f7573d6000803e3d6000fd5b505050506040513d601f19601f8201168201806040525081019061011b9190610120565b905090565b60006020828403121561013257600080fd5b8151801515811461014257600080fd5b939250505056fea2646970667358221220750197d2753583681c520eb5dd460cea76f2615c714062b25faf56cdc04546a264736f6c63430008130033608060405234801561001057600080fd5b5060ce8061001f6000396000f3fe6080604052348015600f57600080fd5b506004361060325760003560e01c80637b2aab03146037578063ca4f14c4146057575b600080fd5b60005460439060ff1681565b604051901515815260200160405180910390f35b606660623660046080565b6068565b005b80600a03607d576000805460ff191660011790555b50565b600060208284031215609157600080fd5b503591905056fea26469706673582212200f1bada2e10f847341e0ec4fbb6554550964e1f2efd0b7f45c93fb90be15ff4564736f6c63430008130033","bytecodeSha1":"135bf2441fb37a33d4fd9b1c24251906f3f02c45","compiler":{"evm_version":"istanbul","optimizer":{"enabled":true,"runs":200},"version":"0.8.19+commit.7dd6d404"},"contractName":"Setup","language":"Solidity","natspec":{"kind":"dev","methods":{},"version":1},"opcodes":"PUSH1 0x80 PUSH1 0x40 MSTORE CALLVALUE DUP1 ISZERO PUSH2 0x10 JUMPI PUSH1 0x0 DUP1 REVERT JUMPDEST POP PUSH1 0x4 CALLDATASIZE LT PUSH2 0x36 JUMPI PUSH1 0x0 CALLDATALOAD PUSH1 0xE0 SHR DUP1 PUSH4 0x64D98F6E EQ PUSH2 0x3B JUMPI DUP1 PUSH4 0xCC1F2AFA EQ PUSH2 0x58 JUMPI JUMPDEST PUSH1 0x0 DUP1 REVERT JUMPDEST PUSH2 0x43 PUSH2 0x97 JUMP JUMPDEST PUSH1 0x40 MLOAD SWAP1 ISZERO ISZERO DUP2 MSTORE PUSH1 0x20 ADD JUMPDEST PUSH1 0x40 MLOAD DUP1 SWAP2 SUB SWAP1 RETURN JUMPDEST PUSH2 0x7F PUSH32 0x0 DUP2 JUMP JUMPDEST PUSH1 0x40 MLOAD PUSH1 0x1 PUSH1 0x1 PUSH1 0xA0 SHL SUB SWAP1 SWAP2 AND DUP2 MSTORE PUSH1 0x20 ADD PUSH2 0x4F JUMP JUMPDEST PUSH1 0x0 PUSH32 0x0 PUSH1 0x1 PUSH1 0x1 PUSH1 0xA0 SHL SUB AND PUSH4 0x7B2AAB03 PUSH1 0x40 MLOAD DUP2 PUSH4 0xFFFFFFFF AND PUSH1 0xE0 SHL DUP2 MSTORE PUSH1 0x4 ADD PUSH1 0x20 PUSH1 0x40 MLOAD DUP1 DUP4 SUB DUP2 DUP7 GAS STATICCALL ISZERO DUP1 ISZERO PUSH2 0xF7 JUMPI RETURNDATASIZE PUSH1 0x0 DUP1 RETURNDATACOPY RETURNDATASIZE PUSH1 0x0 REVERT JUMPDEST POP POP POP POP PUSH1 0x40 MLOAD RETURNDATASIZE PUSH1 0x1F NOT PUSH1 0x1F DUP3 ADD AND DUP3 ADD DUP1 PUSH1 0x40 MSTORE POP DUP2 ADD SWAP1 PUSH2 0x11B SWAP2 SWAP1 PUSH2 0x120 JUMP JUMPDEST SWAP1 POP SWAP1 JUMP JUMPDEST PUSH1 0x0 PUSH1 0x20 DUP3 DUP5 SUB SLT ISZERO PUSH2 0x132 JUMPI PUSH1 0x0 DUP1 REVERT JUMPDEST DUP2 MLOAD DUP1 ISZERO ISZERO DUP2 EQ PUSH2 0x142 JUMPI PUSH1 0x0 DUP1 REVERT JUMPDEST SWAP4 SWAP3 POP POP POP JUMP INVALID LOG2 PUSH5 0x6970667358 0x22 SLT KECCAK256 PUSH22 0x197D2753583681C520EB5DD460CEA76F2615C714062 0xB2 0x5F 0xAF JUMP 0xCD 0xC0 GASLIMIT CHAINID LOG2 PUSH5 0x736F6C6343 STOP ADDMOD SGT STOP CALLER ","sha1":"57ff6d7c3197baff4c92e9ea980cf55779fb9936","source":"pragma solidity ^0.8.18;\n\nimport {Unknown} from \"./Unknown.sol\";\n\ncontract Setup {\n    Unknown public immutable TARGET;\n\n    constructor() {\n        TARGET = new Unknown();\n    }\n\n    function isSolved() public view returns (bool) {\n        return TARGET.updated();\n    }\n}\n","sourcePath":"contracts/Setup.sol","type":"contract","deployment":{"address":"0x8cBd838e43E47AAE195e1864FcEfB024f604965a","chainid":"1337","blockHeight":1}}